{
  "contractName": "BlockSigner",
  "abi": [
    {
      "constant": true,
      "inputs": [],
      "name": "epochNumber",
      "outputs": [
        {
          "name": "",
          "type": "uint256"
        }
      ],
      "payable": false,
      "stateMutability": "view",
      "type": "function"
    },
    {
      "inputs": [
        {
          "name": "_epochNumber",
          "type": "uint256"
        }
      ],
      "payable": false,
      "stateMutability": "nonpayable",
      "type": "constructor"
    },
    {
      "anonymous": false,
      "inputs": [
        {
          "indexed": false,
          "name": "_signer",
          "type": "address"
        },
        {
          "indexed": false,
          "name": "_blockNumber",
          "type": "uint256"
        },
        {
          "indexed": false,
          "name": "_blockHash",
          "type": "bytes32"
        }
      ],
      "name": "Sign",
      "type": "event"
    },
    {
      "constant": false,
      "inputs": [
        {
          "name": "_blockNumber",
          "type": "uint256"
        },
        {
          "name": "_blockHash",
          "type": "bytes32"
        }
      ],
      "name": "sign",
      "outputs": [],
      "payable": false,
      "stateMutability": "nonpayable",
      "type": "function"
    },
    {
      "constant": true,
      "inputs": [
        {
          "name": "_blockHash",
          "type": "bytes32"
        }
      ],
      "name": "getSigners",
      "outputs": [
        {
          "name": "",
          "type": "address[]"
        }
      ],
      "payable": false,
      "stateMutability": "view",
      "type": "function"
    }
  ],
  "bytecode": "0x608060405234801561001057600080fd5b506040516020806103fe8339810180604052810190808051906020019092919050505080600281905550506103b48061004a6000396000f300608060405260043610610057576000357c0100000000000000000000000000000000000000000000000000000000900463ffffffff168063e341eaa41461005c578063e7ec6aef14610097578063f4145a831461011d575b600080fd5b34801561006857600080fd5b50610095600480360381019080803590602001909291908035600019169060200190929190505050610148565b005b3480156100a357600080fd5b506100c660048036038101908080356000191690602001909291905050506102bc565b6040518080602001828103825283818151815260200191508051906020019060200280838360005b838110156101095780820151818401526020810190506100ee565b505050509050019250505060405180910390f35b34801561012957600080fd5b50610132610364565b6040518082815260200191505060405180910390f35b81431015151561015757600080fd5b61016e60028054028361036a90919063ffffffff16565b431115151561017c57600080fd5b6001600083815260200190815260200160002081908060018154018082558091505090600182039060005260206000200160009091929091909150906000191690555060008082600019166000191681526020019081526020016000203390806001815401808255809150509060018203906000526020600020016000909192909190916101000a81548173ffffffffffffffffffffffffffffffffffffffff021916908373ffffffffffffffffffffffffffffffffffffffff160217905550507f62855fa22e051687c32ac285857751f6d3f2c100c72756d8d30cb7ecb1f64f54338383604051808473ffffffffffffffffffffffffffffffffffffffff1673ffffffffffffffffffffffffffffffffffffffff1681526020018381526020018260001916600019168152602001935050505060405180910390a15050565b6060600080836000191660001916815260200190815260200160002080548060200260200160405190810160405280929190818152602001828054801561035857602002820191906000526020600020905b8160009054906101000a900473ffffffffffffffffffffffffffffffffffffffff1673ffffffffffffffffffffffffffffffffffffffff168152602001906001019080831161030e575b50505050509050919050565b60025481565b600080828401905083811015151561037e57fe5b80915050929150505600a165627a7a7230582040ef10288aee17a18cdc8090bac10c9a2bbc31ab74df4881086589c39bd878280029",
  "source": "pragma solidity ^0.4.21;\n\nimport \"./libs/SafeMath.sol\";\n\ncontract BlockSigner {\n    using SafeMath for uint256;\n\n    event Sign(address _signer, uint256 _blockNumber, bytes32 _blockHash);\n\n    mapping(bytes32 => address[]) blockSigners;\n    mapping(uint256 => bytes32[]) blocks;\n    uint256 public epochNumber;\n\n    function BlockSigner(uint256 _epochNumber) public {\n        epochNumber = _epochNumber;\n    }\n\n    function sign(uint256 _blockNumber, bytes32 _blockHash) external {\n        // consensus should validate all senders are validators, gas = 0\n        require(block.number >= _blockNumber);\n        require(block.number <= _blockNumber.add(epochNumber * 2));\n        blocks[_blockNumber].push(_blockHash);\n        blockSigners[_blockHash].push(msg.sender);\n\n        emit Sign(msg.sender, _blockNumber, _blockHash);\n    }\n\n    function getSigners(bytes32 _blockHash) public view returns(address[]) {\n        return blockSigners[_blockHash];\n    }\n}\n",
  "sourcePath": "/home/vagrant/projects/tomomaster/contracts/BlockSigner.sol",
  "compiler": {
    "name": "solc",
    "version": "0.4.24+commit.e67f0147.Emscripten.clang"
  },
  "schemaVersion": "2.0.1",
  "updatedAt": "2018-08-17T07:42:52.082Z"
}