{
  "contractName": "TomoValidator",
  "abi": [
    {
      "constant": true,
      "inputs": [
        {
          "name": "",
          "type": "uint256"
        }
      ],
      "name": "candidates",
      "outputs": [
        {
          "name": "",
          "type": "address"
        }
      ],
      "payable": false,
      "stateMutability": "view",
      "type": "function"
    },
    {
      "constant": true,
      "inputs": [],
      "name": "candidateCount",
      "outputs": [
        {
          "name": "",
          "type": "uint256"
        }
      ],
      "payable": false,
      "stateMutability": "view",
      "type": "function"
    },
    {
      "constant": true,
      "inputs": [],
      "name": "voterWithdrawDelay",
      "outputs": [
        {
          "name": "",
          "type": "uint256"
        }
      ],
      "payable": false,
      "stateMutability": "view",
      "type": "function"
    },
    {
      "constant": true,
      "inputs": [],
      "name": "maxValidatorNumber",
      "outputs": [
        {
          "name": "",
          "type": "uint256"
        }
      ],
      "payable": false,
      "stateMutability": "view",
      "type": "function"
    },
    {
      "constant": true,
      "inputs": [],
      "name": "candidateWithdrawDelay",
      "outputs": [
        {
          "name": "",
          "type": "uint256"
        }
      ],
      "payable": false,
      "stateMutability": "view",
      "type": "function"
    },
    {
      "constant": true,
      "inputs": [],
      "name": "minCandidateCap",
      "outputs": [
        {
          "name": "",
          "type": "uint256"
        }
      ],
      "payable": false,
      "stateMutability": "view",
      "type": "function"
    },
    {
      "inputs": [
        {
          "name": "_candidates",
          "type": "address[]"
        },
        {
          "name": "_caps",
          "type": "uint256[]"
        },
        {
          "name": "_firstOwner",
          "type": "address"
        },
        {
          "name": "_minCandidateCap",
          "type": "uint256"
        },
        {
          "name": "_maxValidatorNumber",
          "type": "uint256"
        },
        {
          "name": "_candidateWithdrawDelay",
          "type": "uint256"
        },
        {
          "name": "_voterWithdrawDelay",
          "type": "uint256"
        }
      ],
      "payable": false,
      "stateMutability": "nonpayable",
      "type": "constructor"
    },
    {
      "anonymous": false,
      "inputs": [
        {
          "indexed": false,
          "name": "_voter",
          "type": "address"
        },
        {
          "indexed": false,
          "name": "_candidate",
          "type": "address"
        },
        {
          "indexed": false,
          "name": "_cap",
          "type": "uint256"
        }
      ],
      "name": "Vote",
      "type": "event"
    },
    {
      "anonymous": false,
      "inputs": [
        {
          "indexed": false,
          "name": "_voter",
          "type": "address"
        },
        {
          "indexed": false,
          "name": "_candidate",
          "type": "address"
        },
        {
          "indexed": false,
          "name": "_cap",
          "type": "uint256"
        }
      ],
      "name": "Unvote",
      "type": "event"
    },
    {
      "anonymous": false,
      "inputs": [
        {
          "indexed": false,
          "name": "_owner",
          "type": "address"
        },
        {
          "indexed": false,
          "name": "_candidate",
          "type": "address"
        },
        {
          "indexed": false,
          "name": "_cap",
          "type": "uint256"
        }
      ],
      "name": "Propose",
      "type": "event"
    },
    {
      "anonymous": false,
      "inputs": [
        {
          "indexed": false,
          "name": "_owner",
          "type": "address"
        },
        {
          "indexed": false,
          "name": "_candidate",
          "type": "address"
        }
      ],
      "name": "Resign",
      "type": "event"
    },
    {
      "anonymous": false,
      "inputs": [
        {
          "indexed": false,
          "name": "_owner",
          "type": "address"
        },
        {
          "indexed": false,
          "name": "_blockNumber",
          "type": "uint256"
        },
        {
          "indexed": false,
          "name": "_cap",
          "type": "uint256"
        }
      ],
      "name": "Withdraw",
      "type": "event"
    },
    {
      "constant": false,
      "inputs": [
        {
          "name": "_candidate",
          "type": "address"
        }
      ],
      "name": "propose",
      "outputs": [],
      "payable": true,
      "stateMutability": "payable",
      "type": "function"
    },
    {
      "constant": false,
      "inputs": [
        {
          "name": "_candidate",
          "type": "address"
        }
      ],
      "name": "vote",
      "outputs": [],
      "payable": true,
      "stateMutability": "payable",
      "type": "function"
    },
    {
      "constant": true,
      "inputs": [],
      "name": "getCandidates",
      "outputs": [
        {
          "name": "",
          "type": "address[]"
        }
      ],
      "payable": false,
      "stateMutability": "view",
      "type": "function"
    },
    {
      "constant": true,
      "inputs": [
        {
          "name": "_candidate",
          "type": "address"
        }
      ],
      "name": "getCandidateCap",
      "outputs": [
        {
          "name": "",
          "type": "uint256"
        }
      ],
      "payable": false,
      "stateMutability": "view",
      "type": "function"
    },
    {
      "constant": true,
      "inputs": [
        {
          "name": "_candidate",
          "type": "address"
        }
      ],
      "name": "getCandidateOwner",
      "outputs": [
        {
          "name": "",
          "type": "address"
        }
      ],
      "payable": false,
      "stateMutability": "view",
      "type": "function"
    },
    {
      "constant": true,
      "inputs": [
        {
          "name": "_candidate",
          "type": "address"
        },
        {
          "name": "_voter",
          "type": "address"
        }
      ],
      "name": "getVoterCap",
      "outputs": [
        {
          "name": "",
          "type": "uint256"
        }
      ],
      "payable": false,
      "stateMutability": "view",
      "type": "function"
    },
    {
      "constant": true,
      "inputs": [
        {
          "name": "_candidate",
          "type": "address"
        }
      ],
      "name": "getVoters",
      "outputs": [
        {
          "name": "",
          "type": "address[]"
        }
      ],
      "payable": false,
      "stateMutability": "view",
      "type": "function"
    },
    {
      "constant": true,
      "inputs": [
        {
          "name": "_candidate",
          "type": "address"
        }
      ],
      "name": "isCandidate",
      "outputs": [
        {
          "name": "",
          "type": "bool"
        }
      ],
      "payable": false,
      "stateMutability": "view",
      "type": "function"
    },
    {
      "constant": true,
      "inputs": [],
      "name": "getWithdrawBlockNumbers",
      "outputs": [
        {
          "name": "",
          "type": "uint256[]"
        }
      ],
      "payable": false,
      "stateMutability": "view",
      "type": "function"
    },
    {
      "constant": true,
      "inputs": [
        {
          "name": "_blockNumber",
          "type": "uint256"
        }
      ],
      "name": "getWithdrawCap",
      "outputs": [
        {
          "name": "",
          "type": "uint256"
        }
      ],
      "payable": false,
      "stateMutability": "view",
      "type": "function"
    },
    {
      "constant": false,
      "inputs": [
        {
          "name": "_candidate",
          "type": "address"
        },
        {
          "name": "_cap",
          "type": "uint256"
        }
      ],
      "name": "unvote",
      "outputs": [],
      "payable": false,
      "stateMutability": "nonpayable",
      "type": "function"
    },
    {
      "constant": false,
      "inputs": [
        {
          "name": "_candidate",
          "type": "address"
        }
      ],
      "name": "resign",
      "outputs": [],
      "payable": false,
      "stateMutability": "nonpayable",
      "type": "function"
    },
    {
      "constant": false,
      "inputs": [
        {
          "name": "_blockNumber",
          "type": "uint256"
        },
        {
          "name": "_index",
          "type": "uint256"
        }
      ],
      "name": "withdraw",
      "outputs": [],
      "payable": false,
      "stateMutability": "nonpayable",
      "type": "function"
    }
  ],
  "bytecode": "0x608060405260006004553480156200001657600080fd5b506040516200255d3803806200255d83398101806040528101908080518201929190602001805182019291906020018051906020019092919080519060200190929190805190602001909291908051906020019092919080519060200190929190505050600084600581905550836006819055508260078190555081600881905550620000be88516004546200040064010000000002620020cb179091906401000000009004565b600481905550600090505b8751811015620003f25760038882815181101515620000e457fe5b9060200190602002015190806001815401808255809150509060018203906000526020600020016000909192909190916101000a81548173ffffffffffffffffffffffffffffffffffffffff021916908373ffffffffffffffffffffffffffffffffffffffff160217905550506060604051908101604052808773ffffffffffffffffffffffffffffffffffffffff16815260200160011515815260200188838151811015156200019157fe5b90602001906020020151815250600160008a84815181101515620001b157fe5b9060200190602002015173ffffffffffffffffffffffffffffffffffffffff1673ffffffffffffffffffffffffffffffffffffffff16815260200190815260200160002060008201518160000160006101000a81548173ffffffffffffffffffffffffffffffffffffffff021916908373ffffffffffffffffffffffffffffffffffffffff16021790555060208201518160000160146101000a81548160ff021916908315150217905550604082015181600101559050506002600089838151811015156200027c57fe5b9060200190602002015173ffffffffffffffffffffffffffffffffffffffff1673ffffffffffffffffffffffffffffffffffffffff1681526020019081526020016000208690806001815401808255809150509060018203906000526020600020016000909192909190916101000a81548173ffffffffffffffffffffffffffffffffffffffff021916908373ffffffffffffffffffffffffffffffffffffffff16021790555050600554600160006003848154811015156200033b57fe5b9060005260206000200160009054906101000a900473ffffffffffffffffffffffffffffffffffffffff1673ffffffffffffffffffffffffffffffffffffffff1673ffffffffffffffffffffffffffffffffffffffff16815260200190815260200160002060020160008873ffffffffffffffffffffffffffffffffffffffff1673ffffffffffffffffffffffffffffffffffffffff168152602001908152602001600020819055508080600101915050620000c9565b50505050505050506200041f565b60008082840190508381101515156200041557fe5b8091505092915050565b61212e806200042f6000396000f300608060405260043610610107576000357c0100000000000000000000000000000000000000000000000000000000900463ffffffff168063012679511461010c57806302aa9be21461014257806306a49fce1461018f57806315febd68146101fb5780632d15cc041461023c5780632f9c4bba146102d4578063302b6872146103405780633477ee2e146103b7578063441a3e701461042457806358e7525f1461045b5780636dd7d8ea146104b2578063a9a981a3146104e8578063a9ff959e14610513578063ae6e43f51461053e578063b642facd14610581578063d09f1ab414610604578063d161c7671461062f578063d51b9e931461065a578063d55b7dff146106b5575b600080fd5b610140600480360381019080803573ffffffffffffffffffffffffffffffffffffffff1690602001909291905050506106e0565b005b34801561014e57600080fd5b5061018d600480360381019080803573ffffffffffffffffffffffffffffffffffffffff16906020019092919080359060200190929190505050610adc565b005b34801561019b57600080fd5b506101a461103a565b6040518080602001828103825283818151815260200191508051906020019060200280838360005b838110156101e75780820151818401526020810190506101cc565b505050509050019250505060405180910390f35b34801561020757600080fd5b50610226600480360381019080803590602001909291905050506110c8565b6040518082815260200191505060405180910390f35b34801561024857600080fd5b5061027d600480360381019080803573ffffffffffffffffffffffffffffffffffffffff169060200190929190505050611124565b6040518080602001828103825283818151815260200191508051906020019060200280838360005b838110156102c05780820151818401526020810190506102a5565b505050509050019250505060405180910390f35b3480156102e057600080fd5b506102e96111f1565b6040518080602001828103825283818151815260200191508051906020019060200280838360005b8381101561032c578082015181840152602081019050610311565b505050509050019250505060405180910390f35b34801561034c57600080fd5b506103a1600480360381019080803573ffffffffffffffffffffffffffffffffffffffff169060200190929190803573ffffffffffffffffffffffffffffffffffffffff169060200190929190505050611288565b6040518082815260200191505060405180910390f35b3480156103c357600080fd5b506103e260048036038101908080359060200190929190505050611312565b604051808273ffffffffffffffffffffffffffffffffffffffff1673ffffffffffffffffffffffffffffffffffffffff16815260200191505060405180910390f35b34801561043057600080fd5b506104596004803603810190808035906020019092919080359060200190929190505050611350565b005b34801561046757600080fd5b5061049c600480360381019080803573ffffffffffffffffffffffffffffffffffffffff169060200190929190505050611601565b6040518082815260200191505060405180910390f35b6104e6600480360381019080803573ffffffffffffffffffffffffffffffffffffffff16906020019092919050505061164d565b005b3480156104f457600080fd5b506104fd611a28565b6040518082815260200191505060405180910390f35b34801561051f57600080fd5b50610528611a2e565b6040518082815260200191505060405180910390f35b34801561054a57600080fd5b5061057f600480360381019080803573ffffffffffffffffffffffffffffffffffffffff169060200190929190505050611a34565b005b34801561058d57600080fd5b506105c2600480360381019080803573ffffffffffffffffffffffffffffffffffffffff169060200190929190505050611ff4565b604051808273ffffffffffffffffffffffffffffffffffffffff1673ffffffffffffffffffffffffffffffffffffffff16815260200191505060405180910390f35b34801561061057600080fd5b50610619612060565b6040518082815260200191505060405180910390f35b34801561063b57600080fd5b50610644612066565b6040518082815260200191505060405180910390f35b34801561066657600080fd5b5061069b600480360381019080803573ffffffffffffffffffffffffffffffffffffffff16906020019092919050505061206c565b604051808215151515815260200191505060405180910390f35b3480156106c157600080fd5b506106ca6120c5565b6040518082815260200191505060405180910390f35b600060055434101515156106f357600080fd5b81600160008273ffffffffffffffffffffffffffffffffffffffff1673ffffffffffffffffffffffffffffffffffffffff16815260200190815260200160002060000160149054906101000a900460ff1615151561075057600080fd5b6107a534600160008673ffffffffffffffffffffffffffffffffffffffff1673ffffffffffffffffffffffffffffffffffffffff168152602001908152602001600020600101546120cb90919063ffffffff16565b915060038390806001815401808255809150509060018203906000526020600020016000909192909190916101000a81548173ffffffffffffffffffffffffffffffffffffffff021916908373ffffffffffffffffffffffffffffffffffffffff160217905550506060604051908101604052803373ffffffffffffffffffffffffffffffffffffffff16815260200160011515815260200183815250600160008573ffffffffffffffffffffffffffffffffffffffff1673ffffffffffffffffffffffffffffffffffffffff16815260200190815260200160002060008201518160000160006101000a81548173ffffffffffffffffffffffffffffffffffffffff021916908373ffffffffffffffffffffffffffffffffffffffff16021790555060208201518160000160146101000a81548160ff0219169083151502179055506040820151816001015590505034600160008573ffffffffffffffffffffffffffffffffffffffff1673ffffffffffffffffffffffffffffffffffffffff16815260200190815260200160002060020160003373ffffffffffffffffffffffffffffffffffffffff1673ffffffffffffffffffffffffffffffffffffffff1681526020019081526020016000208190555061098f60016004546120cb90919063ffffffff16565b600481905550600260008473ffffffffffffffffffffffffffffffffffffffff1673ffffffffffffffffffffffffffffffffffffffff1681526020019081526020016000203390806001815401808255809150509060018203906000526020600020016000909192909190916101000a81548173ffffffffffffffffffffffffffffffffffffffff021916908373ffffffffffffffffffffffffffffffffffffffff160217905550507f7635f1d87b47fba9f2b09e56eb4be75cca030e0cb179c1602ac9261d39a8f5c1338434604051808473ffffffffffffffffffffffffffffffffffffffff1673ffffffffffffffffffffffffffffffffffffffff1681526020018373ffffffffffffffffffffffffffffffffffffffff1673ffffffffffffffffffffffffffffffffffffffff168152602001828152602001935050505060405180910390a1505050565b6000828280600160008473ffffffffffffffffffffffffffffffffffffffff1673ffffffffffffffffffffffffffffffffffffffff16815260200190815260200160002060020160003373ffffffffffffffffffffffffffffffffffffffff1673ffffffffffffffffffffffffffffffffffffffff1681526020019081526020016000205410151515610b6e57600080fd5b3373ffffffffffffffffffffffffffffffffffffffff16600160008473ffffffffffffffffffffffffffffffffffffffff1673ffffffffffffffffffffffffffffffffffffffff16815260200190815260200160002060000160009054906101000a900473ffffffffffffffffffffffffffffffffffffffff1673ffffffffffffffffffffffffffffffffffffffff161415610ca757600554610c9982600160008673ffffffffffffffffffffffffffffffffffffffff1673ffffffffffffffffffffffffffffffffffffffff16815260200190815260200160002060020160003373ffffffffffffffffffffffffffffffffffffffff1673ffffffffffffffffffffffffffffffffffffffff168152602001908152602001600020546120e990919063ffffffff16565b10151515610ca657600080fd5b5b610cfc84600160008873ffffffffffffffffffffffffffffffffffffffff1673ffffffffffffffffffffffffffffffffffffffff168152602001908152602001600020600101546120e990919063ffffffff16565b600160008773ffffffffffffffffffffffffffffffffffffffff1673ffffffffffffffffffffffffffffffffffffffff16815260200190815260200160002060010181905550610dd484600160008873ffffffffffffffffffffffffffffffffffffffff1673ffffffffffffffffffffffffffffffffffffffff16815260200190815260200160002060020160003373ffffffffffffffffffffffffffffffffffffffff1673ffffffffffffffffffffffffffffffffffffffff168152602001908152602001600020546120e990919063ffffffff16565b600160008773ffffffffffffffffffffffffffffffffffffffff1673ffffffffffffffffffffffffffffffffffffffff16815260200190815260200160002060020160003373ffffffffffffffffffffffffffffffffffffffff1673ffffffffffffffffffffffffffffffffffffffff16815260200190815260200160002081905550610e6c436008546120cb90919063ffffffff16565b9250610ed3846000803373ffffffffffffffffffffffffffffffffffffffff1673ffffffffffffffffffffffffffffffffffffffff1681526020019081526020016000206000016000868152602001908152602001600020546120cb90919063ffffffff16565b6000803373ffffffffffffffffffffffffffffffffffffffff1673ffffffffffffffffffffffffffffffffffffffff1681526020019081526020016000206000016000858152602001908152602001600020819055506000803373ffffffffffffffffffffffffffffffffffffffff1673ffffffffffffffffffffffffffffffffffffffff1681526020019081526020016000206001018390806001815401808255809150509060018203906000526020600020016000909192909190915055507faa0e554f781c3c3b2be110a0557f260f11af9a8aa2c64bc1e7a31dbb21e32fa2338686604051808473ffffffffffffffffffffffffffffffffffffffff1673ffffffffffffffffffffffffffffffffffffffff1681526020018373ffffffffffffffffffffffffffffffffffffffff1673ffffffffffffffffffffffffffffffffffffffff168152602001828152602001935050505060405180910390a15050505050565b606060038054806020026020016040519081016040528092919081815260200182805480156110be57602002820191906000526020600020905b8160009054906101000a900473ffffffffffffffffffffffffffffffffffffffff1673ffffffffffffffffffffffffffffffffffffffff1681526020019060010190808311611074575b5050505050905090565b60008060003373ffffffffffffffffffffffffffffffffffffffff1673ffffffffffffffffffffffffffffffffffffffff1681526020019081526020016000206000016000838152602001908152602001600020549050919050565b6060600260008373ffffffffffffffffffffffffffffffffffffffff1673ffffffffffffffffffffffffffffffffffffffff1681526020019081526020016000208054806020026020016040519081016040528092919081815260200182805480156111e557602002820191906000526020600020905b8160009054906101000a900473ffffffffffffffffffffffffffffffffffffffff1673ffffffffffffffffffffffffffffffffffffffff168152602001906001019080831161119b575b50505050509050919050565b60606000803373ffffffffffffffffffffffffffffffffffffffff1673ffffffffffffffffffffffffffffffffffffffff16815260200190815260200160002060010180548060200260200160405190810160405280929190818152602001828054801561127e57602002820191906000526020600020905b81548152602001906001019080831161126a575b5050505050905090565b6000600160008473ffffffffffffffffffffffffffffffffffffffff1673ffffffffffffffffffffffffffffffffffffffff16815260200190815260200160002060020160008373ffffffffffffffffffffffffffffffffffffffff1673ffffffffffffffffffffffffffffffffffffffff16815260200190815260200160002054905092915050565b60038181548110151561132157fe5b906000526020600020016000915054906101000a900473ffffffffffffffffffffffffffffffffffffffff1681565b6000828260008211151561136357600080fd5b81431015151561137257600080fd5b60008060003373ffffffffffffffffffffffffffffffffffffffff1673ffffffffffffffffffffffffffffffffffffffff1681526020019081526020016000206000016000848152602001908152602001600020541115156113d357600080fd5b816000803373ffffffffffffffffffffffffffffffffffffffff1673ffffffffffffffffffffffffffffffffffffffff1681526020019081526020016000206001018281548110151561142257fe5b906000526020600020015414151561143957600080fd5b6000803373ffffffffffffffffffffffffffffffffffffffff1673ffffffffffffffffffffffffffffffffffffffff16815260200190815260200160002060000160008681526020019081526020016000205492506000803373ffffffffffffffffffffffffffffffffffffffff1673ffffffffffffffffffffffffffffffffffffffff1681526020019081526020016000206000016000868152602001908152602001600020600090556000803373ffffffffffffffffffffffffffffffffffffffff1673ffffffffffffffffffffffffffffffffffffffff1681526020019081526020016000206001018481548110151561153257fe5b90600052602060002001600090553373ffffffffffffffffffffffffffffffffffffffff166108fc849081150290604051600060405180830381858888f19350505050158015611586573d6000803e3d6000fd5b507ff279e6a1f5e320cca91135676d9cb6e44ca8a08c0b88342bcdb1144f6511b568338685604051808473ffffffffffffffffffffffffffffffffffffffff1673ffffffffffffffffffffffffffffffffffffffff168152602001838152602001828152602001935050505060405180910390a15050505050565b6000600160008373ffffffffffffffffffffffffffffffffffffffff1673ffffffffffffffffffffffffffffffffffffffff168152602001908152602001600020600101549050919050565b80600160008273ffffffffffffffffffffffffffffffffffffffff1673ffffffffffffffffffffffffffffffffffffffff16815260200190815260200160002060000160149054906101000a900460ff1615156116a957600080fd5b6116fe34600160008573ffffffffffffffffffffffffffffffffffffffff1673ffffffffffffffffffffffffffffffffffffffff168152602001908152602001600020600101546120cb90919063ffffffff16565b600160008473ffffffffffffffffffffffffffffffffffffffff1673ffffffffffffffffffffffffffffffffffffffff168152602001908152602001600020600101819055506000600160008473ffffffffffffffffffffffffffffffffffffffff1673ffffffffffffffffffffffffffffffffffffffff16815260200190815260200160002060020160003373ffffffffffffffffffffffffffffffffffffffff1673ffffffffffffffffffffffffffffffffffffffff16815260200190815260200160002054141561187057600260008373ffffffffffffffffffffffffffffffffffffffff1673ffffffffffffffffffffffffffffffffffffffff1681526020019081526020016000203390806001815401808255809150509060018203906000526020600020016000909192909190916101000a81548173ffffffffffffffffffffffffffffffffffffffff021916908373ffffffffffffffffffffffffffffffffffffffff160217905550505b61190234600160008573ffffffffffffffffffffffffffffffffffffffff1673ffffffffffffffffffffffffffffffffffffffff16815260200190815260200160002060020160003373ffffffffffffffffffffffffffffffffffffffff1673ffffffffffffffffffffffffffffffffffffffff168152602001908152602001600020546120cb90919063ffffffff16565b600160008473ffffffffffffffffffffffffffffffffffffffff1673ffffffffffffffffffffffffffffffffffffffff16815260200190815260200160002060020160003373ffffffffffffffffffffffffffffffffffffffff1673ffffffffffffffffffffffffffffffffffffffff168152602001908152602001600020819055507f66a9138482c99e9baf08860110ef332cc0c23b4a199a53593d8db0fc8f96fbfc338334604051808473ffffffffffffffffffffffffffffffffffffffff1673ffffffffffffffffffffffffffffffffffffffff1681526020018373ffffffffffffffffffffffffffffffffffffffff1673ffffffffffffffffffffffffffffffffffffffff168152602001828152602001935050505060405180910390a15050565b60045481565b60085481565b6000806000833373ffffffffffffffffffffffffffffffffffffffff16600160008373ffffffffffffffffffffffffffffffffffffffff1673ffffffffffffffffffffffffffffffffffffffff16815260200190815260200160002060000160009054906101000a900473ffffffffffffffffffffffffffffffffffffffff1673ffffffffffffffffffffffffffffffffffffffff16141515611ad657600080fd5b84600160008273ffffffffffffffffffffffffffffffffffffffff1673ffffffffffffffffffffffffffffffffffffffff16815260200190815260200160002060000160149054906101000a900460ff161515611b3257600080fd5b6000600160008873ffffffffffffffffffffffffffffffffffffffff1673ffffffffffffffffffffffffffffffffffffffff16815260200190815260200160002060000160146101000a81548160ff021916908315150217905550611ba360016004546120e990919063ffffffff16565b600481905550600094505b600380549050851015611c76578573ffffffffffffffffffffffffffffffffffffffff16600386815481101515611be157fe5b9060005260206000200160009054906101000a900473ffffffffffffffffffffffffffffffffffffffff1673ffffffffffffffffffffffffffffffffffffffff161415611c6957600385815481101515611c3757fe5b9060005260206000200160006101000a81549073ffffffffffffffffffffffffffffffffffffffff0219169055611c76565b8480600101955050611bae565b600160008773ffffffffffffffffffffffffffffffffffffffff1673ffffffffffffffffffffffffffffffffffffffff16815260200190815260200160002060020160003373ffffffffffffffffffffffffffffffffffffffff1673ffffffffffffffffffffffffffffffffffffffff168152602001908152602001600020549350611d4d84600160008973ffffffffffffffffffffffffffffffffffffffff1673ffffffffffffffffffffffffffffffffffffffff168152602001908152602001600020600101546120e990919063ffffffff16565b600160008873ffffffffffffffffffffffffffffffffffffffff1673ffffffffffffffffffffffffffffffffffffffff168152602001908152602001600020600101819055506000600160008873ffffffffffffffffffffffffffffffffffffffff1673ffffffffffffffffffffffffffffffffffffffff16815260200190815260200160002060020160003373ffffffffffffffffffffffffffffffffffffffff1673ffffffffffffffffffffffffffffffffffffffff16815260200190815260200160002081905550611e2d436007546120cb90919063ffffffff16565b9250611e94846000803373ffffffffffffffffffffffffffffffffffffffff1673ffffffffffffffffffffffffffffffffffffffff1681526020019081526020016000206000016000868152602001908152602001600020546120cb90919063ffffffff16565b6000803373ffffffffffffffffffffffffffffffffffffffff1673ffffffffffffffffffffffffffffffffffffffff1681526020019081526020016000206000016000858152602001908152602001600020819055506000803373ffffffffffffffffffffffffffffffffffffffff1673ffffffffffffffffffffffffffffffffffffffff1681526020019081526020016000206001018390806001815401808255809150509060018203906000526020600020016000909192909190915055507f4edf3e325d0063213a39f9085522994a1c44bea5f39e7d63ef61260a1e58c6d33387604051808373ffffffffffffffffffffffffffffffffffffffff1673ffffffffffffffffffffffffffffffffffffffff1681526020018273ffffffffffffffffffffffffffffffffffffffff1673ffffffffffffffffffffffffffffffffffffffff1681526020019250505060405180910390a1505050505050565b6000600160008373ffffffffffffffffffffffffffffffffffffffff1673ffffffffffffffffffffffffffffffffffffffff16815260200190815260200160002060000160009054906101000a900473ffffffffffffffffffffffffffffffffffffffff169050919050565b60065481565b60075481565b6000600160008373ffffffffffffffffffffffffffffffffffffffff1673ffffffffffffffffffffffffffffffffffffffff16815260200190815260200160002060000160149054906101000a900460ff169050919050565b60055481565b60008082840190508381101515156120df57fe5b8091505092915050565b60008282111515156120f757fe5b8183039050929150505600a165627a7a72305820d8816253a09271aa5cbc97e262d908623354879a9532086e3c96eafe44b426370029",
  "source": "pragma solidity ^0.4.21;\n\nimport \"./libs/SafeMath.sol\";\n\ncontract TomoValidator {\n    using SafeMath for uint256;\n\n    event Vote(address _voter, address _candidate, uint256 _cap);\n    event Unvote(address _voter, address _candidate, uint256 _cap);\n    event Propose(address _owner, address _candidate, uint256 _cap);\n    event Resign(address _owner, address _candidate);\n    event Withdraw(address _owner, uint256 _blockNumber, uint256 _cap);\n\n    struct ValidatorState {\n        address owner;\n        bool isCandidate;\n        uint256 cap;\n        mapping(address => uint256) voters;\n    }\n\n    struct WithdrawState {\n      mapping(uint256 => uint256) caps;\n      uint256[] blockNumbers;\n    }\n\n    mapping(address => WithdrawState) withdrawsState;\n\n    mapping(address => ValidatorState) validatorsState;\n    mapping(address => address[]) voters;\n    address[] public candidates;\n\n    uint256 public candidateCount = 0;\n    uint256 public minCandidateCap;\n    uint256 public maxValidatorNumber;\n    uint256 public candidateWithdrawDelay;\n    uint256 public voterWithdrawDelay;\n\n    modifier onlyValidCandidateCap {\n        // anyone can deposit X TOMO to become a candidate\n        require(msg.value >= minCandidateCap);\n        _;\n    }\n\n    modifier onlyOwner(address _candidate) {\n        require(validatorsState[_candidate].owner == msg.sender);\n        _;\n    }\n\n    modifier onlyCandidate(address _candidate) {\n        require(validatorsState[_candidate].isCandidate);\n        _;\n    }\n\n    modifier onlyValidCandidate (address _candidate) {\n        require(validatorsState[_candidate].isCandidate);\n        _;\n    }\n\n    modifier onlyNotCandidate (address _candidate) {\n        require(!validatorsState[_candidate].isCandidate);\n        _;\n    }\n\n    modifier onlyValidVote (address _candidate, uint256 _cap) {\n        require(validatorsState[_candidate].voters[msg.sender] >= _cap);\n        if (validatorsState[_candidate].owner == msg.sender) {\n            require(validatorsState[_candidate].voters[msg.sender].sub(_cap) >= minCandidateCap);\n        }\n        _;\n    }\n\n    modifier onlyValidWithdraw (uint256 _blockNumber, uint _index) {\n        require(_blockNumber > 0);\n        require(block.number >= _blockNumber);\n        require(withdrawsState[msg.sender].caps[_blockNumber] > 0);\n        require(withdrawsState[msg.sender].blockNumbers[_index] == _blockNumber);\n        _;\n    }\n\n    function TomoValidator (\n        address[] _candidates,\n        uint256[] _caps,\n        address _firstOwner,\n        uint256 _minCandidateCap,\n        uint256 _maxValidatorNumber,\n        uint256 _candidateWithdrawDelay,\n        uint256 _voterWithdrawDelay\n    ) public {\n        minCandidateCap = _minCandidateCap;\n        maxValidatorNumber = _maxValidatorNumber;\n        candidateWithdrawDelay = _candidateWithdrawDelay;\n        voterWithdrawDelay = _voterWithdrawDelay;\n        candidateCount = candidateCount.add(_candidates.length);\n\n        for (uint256 i = 0; i < _candidates.length; i++) {\n            candidates.push(_candidates[i]);\n            validatorsState[_candidates[i]] = ValidatorState({\n                owner: _firstOwner,\n                isCandidate: true,\n                cap: _caps[i]\n            });\n            voters[_candidates[i]].push(_firstOwner);\n            validatorsState[candidates[i]].voters[_firstOwner] = minCandidateCap;\n        }\n    }\n\n    function propose(address _candidate) external payable onlyValidCandidateCap onlyNotCandidate(_candidate) {\n        uint256 cap = validatorsState[_candidate].cap.add(msg.value);\n        candidates.push(_candidate);\n        validatorsState[_candidate] = ValidatorState({\n            owner: msg.sender,\n            isCandidate: true,\n            cap: cap\n        });\n        validatorsState[_candidate].voters[msg.sender] = msg.value;\n        candidateCount = candidateCount.add(1);\n        voters[_candidate].push(msg.sender);\n        emit Propose(msg.sender, _candidate, msg.value);\n    }\n\n    function vote(address _candidate) external payable onlyValidCandidate(_candidate) {\n        validatorsState[_candidate].cap = validatorsState[_candidate].cap.add(msg.value);\n        if (validatorsState[_candidate].voters[msg.sender] == 0) {\n            voters[_candidate].push(msg.sender);\n        }\n        validatorsState[_candidate].voters[msg.sender] = validatorsState[_candidate].voters[msg.sender].add(msg.value);\n        emit Vote(msg.sender, _candidate, msg.value);\n    }\n\n    function getCandidates() public view returns(address[]) {\n        return candidates;\n    }\n\n    function getCandidateCap(address _candidate) public view returns(uint256) {\n        return validatorsState[_candidate].cap;\n    }\n\n    function getCandidateOwner(address _candidate) public view returns(address) {\n        return validatorsState[_candidate].owner;\n    }\n\n    function getVoterCap(address _candidate, address _voter) public view returns(uint256) {\n        return validatorsState[_candidate].voters[_voter];\n    }\n\n    function getVoters(address _candidate) public view returns(address[]) {\n        return voters[_candidate];\n    }\n\n    function isCandidate(address _candidate) public view returns(bool) {\n        return validatorsState[_candidate].isCandidate;\n    }\n\n    function getWithdrawBlockNumbers() public view returns(uint256[]) {\n        return withdrawsState[msg.sender].blockNumbers;\n    }\n\n    function getWithdrawCap(uint256 _blockNumber) public view returns(uint256) {\n        return withdrawsState[msg.sender].caps[_blockNumber];\n    }\n\n    function unvote(address _candidate, uint256 _cap) public onlyValidVote(_candidate, _cap) {\n        validatorsState[_candidate].cap = validatorsState[_candidate].cap.sub(_cap);\n        validatorsState[_candidate].voters[msg.sender] = validatorsState[_candidate].voters[msg.sender].sub(_cap);\n\n        // refund after delay X blocks\n        uint256 withdrawBlockNumber = voterWithdrawDelay.add(block.number);\n        withdrawsState[msg.sender].caps[withdrawBlockNumber] = withdrawsState[msg.sender].caps[withdrawBlockNumber].add(_cap);\n        withdrawsState[msg.sender].blockNumbers.push(withdrawBlockNumber);\n\n        emit Unvote(msg.sender, _candidate, _cap);\n    }\n\n    function resign(address _candidate) public onlyOwner(_candidate) onlyCandidate(_candidate) {\n        validatorsState[_candidate].isCandidate = false;\n        candidateCount = candidateCount.sub(1);\n        for (uint256 i = 0; i < candidates.length; i++) {\n            if (candidates[i] == _candidate) {\n                delete candidates[i];\n                break;\n            }\n        }\n        uint256 cap = validatorsState[_candidate].voters[msg.sender];\n        validatorsState[_candidate].cap = validatorsState[_candidate].cap.sub(cap);\n        validatorsState[_candidate].voters[msg.sender] = 0;\n        // refunding after resigning X blocks\n        uint256 withdrawBlockNumber = candidateWithdrawDelay.add(block.number);\n        withdrawsState[msg.sender].caps[withdrawBlockNumber] = withdrawsState[msg.sender].caps[withdrawBlockNumber].add(cap);\n        withdrawsState[msg.sender].blockNumbers.push(withdrawBlockNumber);\n        emit Resign(msg.sender, _candidate);\n    }\n\n    function withdraw(uint256 _blockNumber, uint _index) public onlyValidWithdraw(_blockNumber, _index) {\n        uint256 cap = withdrawsState[msg.sender].caps[_blockNumber];\n        delete withdrawsState[msg.sender].caps[_blockNumber];\n        delete withdrawsState[msg.sender].blockNumbers[_index];\n        msg.sender.transfer(cap);\n        emit Withdraw(msg.sender, _blockNumber, cap);\n    }\n}\n",
  "sourcePath": "/home/vagrant/projects/tomomaster/contracts/TomoValidator.sol",
  "compiler": {
    "name": "solc",
    "version": "0.4.24+commit.e67f0147.Emscripten.clang"
  },
  "schemaVersion": "2.0.1",
  "updatedAt": "2018-08-17T07:42:52.077Z"
}