{
  "contractName": "TomoRandomize",
  "abi": [
    {
      "constant": true,
      "inputs": [],
      "name": "randomNumber",
      "outputs": [
        {
          "name": "",
          "type": "uint256"
        }
      ],
      "payable": false,
      "stateMutability": "view",
      "type": "function"
    },
    {
      "inputs": [
        {
          "name": "_randomNumber",
          "type": "uint256"
        }
      ],
      "payable": false,
      "stateMutability": "nonpayable",
      "type": "constructor"
    },
    {
      "constant": false,
      "inputs": [
        {
          "name": "_secret",
          "type": "bytes32[]"
        }
      ],
      "name": "setSecret",
      "outputs": [],
      "payable": false,
      "stateMutability": "nonpayable",
      "type": "function"
    },
    {
      "constant": false,
      "inputs": [
        {
          "name": "_opening",
          "type": "bytes32"
        }
      ],
      "name": "setOpening",
      "outputs": [],
      "payable": false,
      "stateMutability": "nonpayable",
      "type": "function"
    },
    {
      "constant": true,
      "inputs": [
        {
          "name": "_validator",
          "type": "address"
        }
      ],
      "name": "getSecret",
      "outputs": [
        {
          "name": "",
          "type": "bytes32[]"
        }
      ],
      "payable": false,
      "stateMutability": "view",
      "type": "function"
    },
    {
      "constant": true,
      "inputs": [
        {
          "name": "_validator",
          "type": "address"
        }
      ],
      "name": "getOpening",
      "outputs": [
        {
          "name": "",
          "type": "bytes32"
        }
      ],
      "payable": false,
      "stateMutability": "view",
      "type": "function"
    }
  ],
  "bytecode": "0x608060405234801561001057600080fd5b506040516020806104a583398101806040528101908080519060200190929190505050806000819055505061045b8061004a6000396000f30060806040526004361061006d576000357c0100000000000000000000000000000000000000000000000000000000900463ffffffff168063284180fc1461007257806334d386001461010a578063ccbac9f514610170578063d442d6cc1461019b578063e11f5ba2146101fa575b600080fd5b34801561007e57600080fd5b506100b3600480360381019080803573ffffffffffffffffffffffffffffffffffffffff16906020019092919050505061022b565b6040518080602001828103825283818151815260200191508051906020019060200280838360005b838110156100f65780820151818401526020810190506100db565b505050509050019250505060405180910390f35b34801561011657600080fd5b5061016e600480360381019080803590602001908201803590602001908080602002602001604051908101604052809392919081815260200183836020028082843782019150505050505091929192905050506102c6565b005b34801561017c57600080fd5b5061018561031d565b6040518082815260200191505060405180910390f35b3480156101a757600080fd5b506101dc600480360381019080803573ffffffffffffffffffffffffffffffffffffffff169060200190929190505050610323565b60405180826000191660001916815260200191505060405180910390f35b34801561020657600080fd5b50610229600480360381019080803560001916906020019092919050505061036c565b005b6060600160008373ffffffffffffffffffffffffffffffffffffffff1673ffffffffffffffffffffffffffffffffffffffff1681526020019081526020016000208054806020026020016040519081016040528092919081815260200182805480156102ba57602002820191906000526020600020905b815460001916815260200190600101908083116102a2575b50505050509050919050565b80600160003373ffffffffffffffffffffffffffffffffffffffff1673ffffffffffffffffffffffffffffffffffffffff16815260200190815260200160002090805190602001906103199291906103b7565b5050565b60005481565b6000600260008373ffffffffffffffffffffffffffffffffffffffff1673ffffffffffffffffffffffffffffffffffffffff168152602001908152602001600020549050919050565b80600260003373ffffffffffffffffffffffffffffffffffffffff1673ffffffffffffffffffffffffffffffffffffffff168152602001908152602001600020816000191690555050565b8280548282559060005260206000209081019282156103f9579160200282015b828111156103f85782518290600019169055916020019190600101906103d7565b5b509050610406919061040a565b5090565b61042c91905b80821115610428576000816000905550600101610410565b5090565b905600a165627a7a72305820a3fbe43fa511c94934cf6f386b040247d700c9b585550c6137f54ee9fabe18f90029",
  "source": "pragma solidity ^0.4.21;\n\nimport \"./libs/SafeMath.sol\";\n\ncontract TomoRandomize {\n    using SafeMath for uint256;\n    uint256 public randomNumber;\n\n    mapping (address=>bytes32[]) randomSecret;\n    mapping (address=>bytes32) randomOpening;\n\n    function TomoRandomize (uint256 _randomNumber) public {\n        randomNumber = _randomNumber;\n    }\n\n    function setSecret(bytes32[] _secret) public {\n        randomSecret[msg.sender] = _secret;\n    }\n\n    function setOpening(bytes32 _opening) public {\n        randomOpening[msg.sender] = _opening;\n    }\n\n    function getSecret(address _validator) public view returns(bytes32[]) {\n        return randomSecret[_validator];\n    }\n\n    function getOpening(address _validator) public view returns(bytes32) {\n        return randomOpening[_validator];\n    }\n}\n",
  "sourcePath": "/home/vagrant/projects/tomomaster/contracts/TomoRandomize.sol",
  "compiler": {
    "name": "solc",
    "version": "0.4.24+commit.e67f0147.Emscripten.clang"
  },
  "schemaVersion": "2.0.1",
  "updatedAt": "2018-08-17T07:42:52.066Z"
}