{
  "contractName": "TomoValidator",
  "abi": [
    {
      "constant": true,
      "inputs": [
        {
          "name": "",
          "type": "uint256"
        }
      ],
      "name": "candidates",
      "outputs": [
        {
          "name": "",
          "type": "address"
        }
      ],
      "payable": false,
      "stateMutability": "view",
      "type": "function"
    },
    {
      "constant": true,
      "inputs": [],
      "name": "candidateCount",
      "outputs": [
        {
          "name": "",
          "type": "uint256"
        }
      ],
      "payable": false,
      "stateMutability": "view",
      "type": "function"
    },
    {
      "constant": true,
      "inputs": [],
      "name": "voterWithdrawDelay",
      "outputs": [
        {
          "name": "",
          "type": "uint256"
        }
      ],
      "payable": false,
      "stateMutability": "view",
      "type": "function"
    },
    {
      "constant": true,
      "inputs": [],
      "name": "maxValidatorNumber",
      "outputs": [
        {
          "name": "",
          "type": "uint256"
        }
      ],
      "payable": false,
      "stateMutability": "view",
      "type": "function"
    },
    {
      "constant": true,
      "inputs": [],
      "name": "candidateWithdrawDelay",
      "outputs": [
        {
          "name": "",
          "type": "uint256"
        }
      ],
      "payable": false,
      "stateMutability": "view",
      "type": "function"
    },
    {
      "constant": true,
      "inputs": [],
      "name": "minCandidateCap",
      "outputs": [
        {
          "name": "",
          "type": "uint256"
        }
      ],
      "payable": false,
      "stateMutability": "view",
      "type": "function"
    },
    {
      "inputs": [
        {
          "name": "_candidates",
          "type": "address[]"
        },
        {
          "name": "_caps",
          "type": "uint256[]"
        },
        {
          "name": "_firstOwner",
          "type": "address"
        },
        {
          "name": "_minCandidateCap",
          "type": "uint256"
        },
        {
          "name": "_maxValidatorNumber",
          "type": "uint256"
        },
        {
          "name": "_candidateWithdrawDelay",
          "type": "uint256"
        },
        {
          "name": "_voterWithdrawDelay",
          "type": "uint256"
        }
      ],
      "payable": false,
      "stateMutability": "nonpayable",
      "type": "constructor"
    },
    {
      "anonymous": false,
      "inputs": [
        {
          "indexed": false,
          "name": "_voter",
          "type": "address"
        },
        {
          "indexed": false,
          "name": "_candidate",
          "type": "address"
        },
        {
          "indexed": false,
          "name": "_cap",
          "type": "uint256"
        }
      ],
      "name": "Vote",
      "type": "event"
    },
    {
      "anonymous": false,
      "inputs": [
        {
          "indexed": false,
          "name": "_voter",
          "type": "address"
        },
        {
          "indexed": false,
          "name": "_candidate",
          "type": "address"
        },
        {
          "indexed": false,
          "name": "_cap",
          "type": "uint256"
        }
      ],
      "name": "Unvote",
      "type": "event"
    },
    {
      "anonymous": false,
      "inputs": [
        {
          "indexed": false,
          "name": "_owner",
          "type": "address"
        },
        {
          "indexed": false,
          "name": "_candidate",
          "type": "address"
        },
        {
          "indexed": false,
          "name": "_cap",
          "type": "uint256"
        }
      ],
      "name": "Propose",
      "type": "event"
    },
    {
      "anonymous": false,
      "inputs": [
        {
          "indexed": false,
          "name": "_owner",
          "type": "address"
        },
        {
          "indexed": false,
          "name": "_candidate",
          "type": "address"
        }
      ],
      "name": "Resign",
      "type": "event"
    },
    {
      "anonymous": false,
      "inputs": [
        {
          "indexed": false,
          "name": "_owner",
          "type": "address"
        },
        {
          "indexed": false,
          "name": "_candidate",
          "type": "address"
        },
        {
          "indexed": false,
          "name": "_nodeId",
          "type": "string"
        }
      ],
      "name": "SetNodeId",
      "type": "event"
    },
    {
      "anonymous": false,
      "inputs": [
        {
          "indexed": false,
          "name": "_owner",
          "type": "address"
        },
        {
          "indexed": false,
          "name": "_blockNumber",
          "type": "uint256"
        },
        {
          "indexed": false,
          "name": "_cap",
          "type": "uint256"
        }
      ],
      "name": "Withdraw",
      "type": "event"
    },
    {
      "constant": false,
      "inputs": [
        {
          "name": "_candidate",
          "type": "address"
        },
        {
          "name": "_nodeId",
          "type": "string"
        }
      ],
      "name": "propose",
      "outputs": [],
      "payable": true,
      "stateMutability": "payable",
      "type": "function"
    },
    {
      "constant": false,
      "inputs": [
        {
          "name": "_candidate",
          "type": "address"
        }
      ],
      "name": "vote",
      "outputs": [],
      "payable": true,
      "stateMutability": "payable",
      "type": "function"
    },
    {
      "constant": true,
      "inputs": [],
      "name": "getCandidates",
      "outputs": [
        {
          "name": "",
          "type": "address[]"
        }
      ],
      "payable": false,
      "stateMutability": "view",
      "type": "function"
    },
    {
      "constant": true,
      "inputs": [
        {
          "name": "_candidate",
          "type": "address"
        }
      ],
      "name": "getCandidateCap",
      "outputs": [
        {
          "name": "",
          "type": "uint256"
        }
      ],
      "payable": false,
      "stateMutability": "view",
      "type": "function"
    },
    {
      "constant": true,
      "inputs": [
        {
          "name": "_candidate",
          "type": "address"
        }
      ],
      "name": "getCandidateNodeId",
      "outputs": [
        {
          "name": "",
          "type": "string"
        }
      ],
      "payable": false,
      "stateMutability": "view",
      "type": "function"
    },
    {
      "constant": true,
      "inputs": [
        {
          "name": "_candidate",
          "type": "address"
        }
      ],
      "name": "getCandidateOwner",
      "outputs": [
        {
          "name": "",
          "type": "address"
        }
      ],
      "payable": false,
      "stateMutability": "view",
      "type": "function"
    },
    {
      "constant": true,
      "inputs": [
        {
          "name": "_candidate",
          "type": "address"
        },
        {
          "name": "_voter",
          "type": "address"
        }
      ],
      "name": "getVoterCap",
      "outputs": [
        {
          "name": "",
          "type": "uint256"
        }
      ],
      "payable": false,
      "stateMutability": "view",
      "type": "function"
    },
    {
      "constant": true,
      "inputs": [
        {
          "name": "_candidate",
          "type": "address"
        }
      ],
      "name": "getVoters",
      "outputs": [
        {
          "name": "",
          "type": "address[]"
        }
      ],
      "payable": false,
      "stateMutability": "view",
      "type": "function"
    },
    {
      "constant": true,
      "inputs": [
        {
          "name": "_candidate",
          "type": "address"
        }
      ],
      "name": "isCandidate",
      "outputs": [
        {
          "name": "",
          "type": "bool"
        }
      ],
      "payable": false,
      "stateMutability": "view",
      "type": "function"
    },
    {
      "constant": true,
      "inputs": [],
      "name": "getWithdrawBlockNumbers",
      "outputs": [
        {
          "name": "",
          "type": "uint256[]"
        }
      ],
      "payable": false,
      "stateMutability": "view",
      "type": "function"
    },
    {
      "constant": true,
      "inputs": [
        {
          "name": "_blockNumber",
          "type": "uint256"
        }
      ],
      "name": "getWithdrawCap",
      "outputs": [
        {
          "name": "",
          "type": "uint256"
        }
      ],
      "payable": false,
      "stateMutability": "view",
      "type": "function"
    },
    {
      "constant": false,
      "inputs": [
        {
          "name": "_candidate",
          "type": "address"
        },
        {
          "name": "_cap",
          "type": "uint256"
        }
      ],
      "name": "unvote",
      "outputs": [],
      "payable": false,
      "stateMutability": "nonpayable",
      "type": "function"
    },
    {
      "constant": false,
      "inputs": [
        {
          "name": "_candidate",
          "type": "address"
        },
        {
          "name": "_nodeId",
          "type": "string"
        }
      ],
      "name": "setNodeId",
      "outputs": [],
      "payable": false,
      "stateMutability": "nonpayable",
      "type": "function"
    },
    {
      "constant": false,
      "inputs": [
        {
          "name": "_candidate",
          "type": "address"
        }
      ],
      "name": "resign",
      "outputs": [],
      "payable": false,
      "stateMutability": "nonpayable",
      "type": "function"
    },
    {
      "constant": false,
      "inputs": [
        {
          "name": "_blockNumber",
          "type": "uint256"
        },
        {
          "name": "_index",
          "type": "uint256"
        }
      ],
      "name": "withdraw",
      "outputs": [],
      "payable": false,
      "stateMutability": "nonpayable",
      "type": "function"
    }
  ],
  "bytecode": "0x608060405260036004553480156200001657600080fd5b5060405162002a1338038062002a1383398101806040528101908080518201929190602001805182019291906020018051906020019092919080519060200190929190805190602001909291908051906020019092919080519060200190929190505050600084600581905550836006819055508260078190555081600881905550600090505b8751811015620003fb5760038882815181101515620000b857fe5b9060200190602002015190806001815401808255809150509060018203906000526020600020016000909192909190916101000a81548173ffffffffffffffffffffffffffffffffffffffff021916908373ffffffffffffffffffffffffffffffffffffffff160217905550506080604051908101604052808773ffffffffffffffffffffffffffffffffffffffff1681526020016020604051908101604052806000815250815260200160011515815260200188838151811015156200017b57fe5b90602001906020020151815250600160008a848151811015156200019b57fe5b9060200190602002015173ffffffffffffffffffffffffffffffffffffffff1673ffffffffffffffffffffffffffffffffffffffff16815260200190815260200160002060008201518160000160006101000a81548173ffffffffffffffffffffffffffffffffffffffff021916908373ffffffffffffffffffffffffffffffffffffffff16021790555060208201518160010190805190602001906200024492919062000409565b5060408201518160020160006101000a81548160ff021916908315150217905550606082015181600301559050506002600089838151811015156200028557fe5b9060200190602002015173ffffffffffffffffffffffffffffffffffffffff1673ffffffffffffffffffffffffffffffffffffffff1681526020019081526020016000208690806001815401808255809150509060018203906000526020600020016000909192909190916101000a81548173ffffffffffffffffffffffffffffffffffffffff021916908373ffffffffffffffffffffffffffffffffffffffff16021790555050600554600160006003848154811015156200034457fe5b9060005260206000200160009054906101000a900473ffffffffffffffffffffffffffffffffffffffff1673ffffffffffffffffffffffffffffffffffffffff1673ffffffffffffffffffffffffffffffffffffffff16815260200190815260200160002060040160008873ffffffffffffffffffffffffffffffffffffffff1673ffffffffffffffffffffffffffffffffffffffff1681526020019081526020016000208190555080806001019150506200009d565b5050505050505050620004b8565b828054600181600116156101000203166002900490600052602060002090601f016020900481019282601f106200044c57805160ff19168380011785556200047d565b828001600101855582156200047d579182015b828111156200047c5782518255916020019190600101906200045f565b5b5090506200048c919062000490565b5090565b620004b591905b80821115620004b157600081600090555060010162000497565b5090565b90565b61254b80620004c86000396000f30060806040526004361061011d576000357c0100000000000000000000000000000000000000000000000000000000900463ffffffff16806302aa9be21461012257806306a49fce1461016f57806315febd68146101db5780632d15cc041461021c5780632f9c4bba146102b4578063302b6872146103205780633477ee2e14610397578063441a3e701461040457806358e7525f1461043b5780636a000d74146104925780636dd7d8ea1461051b5780637d40257f14610551578063a9a981a31461060d578063a9ff959e14610638578063ae6e43f514610663578063b642facd146106a6578063d09f1ab414610729578063d161c76714610754578063d51b9e931461077f578063d55b7dff146107da578063d6f0948c14610805575b600080fd5b34801561012e57600080fd5b5061016d600480360381019080803573ffffffffffffffffffffffffffffffffffffffff16906020019092919080359060200190929190505050610853565b005b34801561017b57600080fd5b50610184610c78565b6040518080602001828103825283818151815260200191508051906020019060200280838360005b838110156101c75780820151818401526020810190506101ac565b505050509050019250505060405180910390f35b3480156101e757600080fd5b5061020660048036038101908080359060200190929190505050610d06565b6040518082815260200191505060405180910390f35b34801561022857600080fd5b5061025d600480360381019080803573ffffffffffffffffffffffffffffffffffffffff169060200190929190505050610d62565b6040518080602001828103825283818151815260200191508051906020019060200280838360005b838110156102a0578082015181840152602081019050610285565b505050509050019250505060405180910390f35b3480156102c057600080fd5b506102c9610e2f565b6040518080602001828103825283818151815260200191508051906020019060200280838360005b8381101561030c5780820151818401526020810190506102f1565b505050509050019250505060405180910390f35b34801561032c57600080fd5b50610381600480360381019080803573ffffffffffffffffffffffffffffffffffffffff169060200190929190803573ffffffffffffffffffffffffffffffffffffffff169060200190929190505050610ec6565b6040518082815260200191505060405180910390f35b3480156103a357600080fd5b506103c260048036038101908080359060200190929190505050610f50565b604051808273ffffffffffffffffffffffffffffffffffffffff1673ffffffffffffffffffffffffffffffffffffffff16815260200191505060405180910390f35b34801561041057600080fd5b506104396004803603810190808035906020019092919080359060200190929190505050610f8e565b005b34801561044757600080fd5b5061047c600480360381019080803573ffffffffffffffffffffffffffffffffffffffff16906020019092919050505061123f565b6040518082815260200191505060405180910390f35b34801561049e57600080fd5b50610519600480360381019080803573ffffffffffffffffffffffffffffffffffffffff169060200190929190803590602001908201803590602001908080601f016020809104026020016040519081016040528093929190818152602001838380828437820191505050505050919291929050505061128b565b005b61054f600480360381019080803573ffffffffffffffffffffffffffffffffffffffff169060200190929190505050611488565b005b34801561055d57600080fd5b50610592600480360381019080803573ffffffffffffffffffffffffffffffffffffffff169060200190929190505050611863565b6040518080602001828103825283818151815260200191508051906020019080838360005b838110156105d25780820151818401526020810190506105b7565b50505050905090810190601f1680156105ff5780820380516001836020036101000a031916815260200191505b509250505060405180910390f35b34801561061957600080fd5b50610622611947565b6040518082815260200191505060405180910390f35b34801561064457600080fd5b5061064d61194d565b6040518082815260200191505060405180910390f35b34801561066f57600080fd5b506106a4600480360381019080803573ffffffffffffffffffffffffffffffffffffffff169060200190929190505050611953565b005b3480156106b257600080fd5b506106e7600480360381019080803573ffffffffffffffffffffffffffffffffffffffff169060200190929190505050611f03565b604051808273ffffffffffffffffffffffffffffffffffffffff1673ffffffffffffffffffffffffffffffffffffffff16815260200191505060405180910390f35b34801561073557600080fd5b5061073e611f6f565b6040518082815260200191505060405180910390f35b34801561076057600080fd5b50610769611f75565b6040518082815260200191505060405180910390f35b34801561078b57600080fd5b506107c0600480360381019080803573ffffffffffffffffffffffffffffffffffffffff169060200190929190505050611f7b565b604051808215151515815260200191505060405180910390f35b3480156107e657600080fd5b506107ef611fd4565b6040518082815260200191505060405180910390f35b610851600480360381019080803573ffffffffffffffffffffffffffffffffffffffff169060200190929190803590602001908201803590602001919091929391929390505050611fda565b005b6000828280600160008473ffffffffffffffffffffffffffffffffffffffff1673ffffffffffffffffffffffffffffffffffffffff16815260200190815260200160002060040160003373ffffffffffffffffffffffffffffffffffffffff1673ffffffffffffffffffffffffffffffffffffffff16815260200190815260200160002054101515156108e557600080fd5b61093a84600160008873ffffffffffffffffffffffffffffffffffffffff1673ffffffffffffffffffffffffffffffffffffffff168152602001908152602001600020600301546123c390919063ffffffff16565b600160008773ffffffffffffffffffffffffffffffffffffffff1673ffffffffffffffffffffffffffffffffffffffff16815260200190815260200160002060030181905550610a1284600160008873ffffffffffffffffffffffffffffffffffffffff1673ffffffffffffffffffffffffffffffffffffffff16815260200190815260200160002060040160003373ffffffffffffffffffffffffffffffffffffffff1673ffffffffffffffffffffffffffffffffffffffff168152602001908152602001600020546123c390919063ffffffff16565b600160008773ffffffffffffffffffffffffffffffffffffffff1673ffffffffffffffffffffffffffffffffffffffff16815260200190815260200160002060040160003373ffffffffffffffffffffffffffffffffffffffff1673ffffffffffffffffffffffffffffffffffffffff16815260200190815260200160002081905550610aaa436008546123dc90919063ffffffff16565b9250610b11846000803373ffffffffffffffffffffffffffffffffffffffff1673ffffffffffffffffffffffffffffffffffffffff1681526020019081526020016000206000016000868152602001908152602001600020546123dc90919063ffffffff16565b6000803373ffffffffffffffffffffffffffffffffffffffff1673ffffffffffffffffffffffffffffffffffffffff1681526020019081526020016000206000016000858152602001908152602001600020819055506000803373ffffffffffffffffffffffffffffffffffffffff1673ffffffffffffffffffffffffffffffffffffffff1681526020019081526020016000206001018390806001815401808255809150509060018203906000526020600020016000909192909190915055507faa0e554f781c3c3b2be110a0557f260f11af9a8aa2c64bc1e7a31dbb21e32fa2338686604051808473ffffffffffffffffffffffffffffffffffffffff1673ffffffffffffffffffffffffffffffffffffffff1681526020018373ffffffffffffffffffffffffffffffffffffffff1673ffffffffffffffffffffffffffffffffffffffff168152602001828152602001935050505060405180910390a15050505050565b60606003805480602002602001604051908101604052809291908181526020018280548015610cfc57602002820191906000526020600020905b8160009054906101000a900473ffffffffffffffffffffffffffffffffffffffff1673ffffffffffffffffffffffffffffffffffffffff1681526020019060010190808311610cb2575b5050505050905090565b60008060003373ffffffffffffffffffffffffffffffffffffffff1673ffffffffffffffffffffffffffffffffffffffff1681526020019081526020016000206000016000838152602001908152602001600020549050919050565b6060600260008373ffffffffffffffffffffffffffffffffffffffff1673ffffffffffffffffffffffffffffffffffffffff168152602001908152602001600020805480602002602001604051908101604052809291908181526020018280548015610e2357602002820191906000526020600020905b8160009054906101000a900473ffffffffffffffffffffffffffffffffffffffff1673ffffffffffffffffffffffffffffffffffffffff1681526020019060010190808311610dd9575b50505050509050919050565b60606000803373ffffffffffffffffffffffffffffffffffffffff1673ffffffffffffffffffffffffffffffffffffffff168152602001908152602001600020600101805480602002602001604051908101604052809291908181526020018280548015610ebc57602002820191906000526020600020905b815481526020019060010190808311610ea8575b5050505050905090565b6000600160008473ffffffffffffffffffffffffffffffffffffffff1673ffffffffffffffffffffffffffffffffffffffff16815260200190815260200160002060040160008373ffffffffffffffffffffffffffffffffffffffff1673ffffffffffffffffffffffffffffffffffffffff16815260200190815260200160002054905092915050565b600381815481101515610f5f57fe5b906000526020600020016000915054906101000a900473ffffffffffffffffffffffffffffffffffffffff1681565b60008282600082111515610fa157600080fd5b814310151515610fb057600080fd5b60008060003373ffffffffffffffffffffffffffffffffffffffff1673ffffffffffffffffffffffffffffffffffffffff16815260200190815260200160002060000160008481526020019081526020016000205411151561101157600080fd5b816000803373ffffffffffffffffffffffffffffffffffffffff1673ffffffffffffffffffffffffffffffffffffffff1681526020019081526020016000206001018281548110151561106057fe5b906000526020600020015414151561107757600080fd5b6000803373ffffffffffffffffffffffffffffffffffffffff1673ffffffffffffffffffffffffffffffffffffffff16815260200190815260200160002060000160008681526020019081526020016000205492506000803373ffffffffffffffffffffffffffffffffffffffff1673ffffffffffffffffffffffffffffffffffffffff1681526020019081526020016000206000016000868152602001908152602001600020600090556000803373ffffffffffffffffffffffffffffffffffffffff1673ffffffffffffffffffffffffffffffffffffffff1681526020019081526020016000206001018481548110151561117057fe5b90600052602060002001600090553373ffffffffffffffffffffffffffffffffffffffff166108fc849081150290604051600060405180830381858888f193505050501580156111c4573d6000803e3d6000fd5b507ff279e6a1f5e320cca91135676d9cb6e44ca8a08c0b88342bcdb1144f6511b568338685604051808473ffffffffffffffffffffffffffffffffffffffff1673ffffffffffffffffffffffffffffffffffffffff168152602001838152602001828152602001935050505060405180910390a15050505050565b6000600160008373ffffffffffffffffffffffffffffffffffffffff1673ffffffffffffffffffffffffffffffffffffffff168152602001908152602001600020600301549050919050565b813373ffffffffffffffffffffffffffffffffffffffff16600160008373ffffffffffffffffffffffffffffffffffffffff1673ffffffffffffffffffffffffffffffffffffffff16815260200190815260200160002060000160009054906101000a900473ffffffffffffffffffffffffffffffffffffffff1673ffffffffffffffffffffffffffffffffffffffff1614151561132857600080fd5b81600160008573ffffffffffffffffffffffffffffffffffffffff1673ffffffffffffffffffffffffffffffffffffffff168152602001908152602001600020600101908051906020019061137e9291906123fa565b507f0e421c04ccd34fafbe77c6b2f9384de8c5c4795114325fedb698a6ce62b2d744338484604051808473ffffffffffffffffffffffffffffffffffffffff1673ffffffffffffffffffffffffffffffffffffffff1681526020018373ffffffffffffffffffffffffffffffffffffffff1673ffffffffffffffffffffffffffffffffffffffff16815260200180602001828103825283818151815260200191508051906020019080838360005b8381101561144757808201518184015260208101905061142c565b50505050905090810190601f1680156114745780820380516001836020036101000a031916815260200191505b5094505050505060405180910390a1505050565b80600160008273ffffffffffffffffffffffffffffffffffffffff1673ffffffffffffffffffffffffffffffffffffffff16815260200190815260200160002060020160009054906101000a900460ff1615156114e457600080fd5b61153934600160008573ffffffffffffffffffffffffffffffffffffffff1673ffffffffffffffffffffffffffffffffffffffff168152602001908152602001600020600301546123dc90919063ffffffff16565b600160008473ffffffffffffffffffffffffffffffffffffffff1673ffffffffffffffffffffffffffffffffffffffff168152602001908152602001600020600301819055506000600160008473ffffffffffffffffffffffffffffffffffffffff1673ffffffffffffffffffffffffffffffffffffffff16815260200190815260200160002060040160003373ffffffffffffffffffffffffffffffffffffffff1673ffffffffffffffffffffffffffffffffffffffff1681526020019081526020016000205414156116ab57600260008373ffffffffffffffffffffffffffffffffffffffff1673ffffffffffffffffffffffffffffffffffffffff1681526020019081526020016000203390806001815401808255809150509060018203906000526020600020016000909192909190916101000a81548173ffffffffffffffffffffffffffffffffffffffff021916908373ffffffffffffffffffffffffffffffffffffffff160217905550505b61173d34600160008573ffffffffffffffffffffffffffffffffffffffff1673ffffffffffffffffffffffffffffffffffffffff16815260200190815260200160002060040160003373ffffffffffffffffffffffffffffffffffffffff1673ffffffffffffffffffffffffffffffffffffffff168152602001908152602001600020546123dc90919063ffffffff16565b600160008473ffffffffffffffffffffffffffffffffffffffff1673ffffffffffffffffffffffffffffffffffffffff16815260200190815260200160002060040160003373ffffffffffffffffffffffffffffffffffffffff1673ffffffffffffffffffffffffffffffffffffffff168152602001908152602001600020819055507f66a9138482c99e9baf08860110ef332cc0c23b4a199a53593d8db0fc8f96fbfc338334604051808473ffffffffffffffffffffffffffffffffffffffff1673ffffffffffffffffffffffffffffffffffffffff1681526020018373ffffffffffffffffffffffffffffffffffffffff1673ffffffffffffffffffffffffffffffffffffffff168152602001828152602001935050505060405180910390a15050565b6060600160008373ffffffffffffffffffffffffffffffffffffffff1673ffffffffffffffffffffffffffffffffffffffff1681526020019081526020016000206001018054600181600116156101000203166002900480601f01602080910402602001604051908101604052809291908181526020018280546001816001161561010002031660029004801561193b5780601f106119105761010080835404028352916020019161193b565b820191906000526020600020905b81548152906001019060200180831161191e57829003601f168201915b50505050509050919050565b60045481565b60085481565b6000806000833373ffffffffffffffffffffffffffffffffffffffff16600160008373ffffffffffffffffffffffffffffffffffffffff1673ffffffffffffffffffffffffffffffffffffffff16815260200190815260200160002060000160009054906101000a900473ffffffffffffffffffffffffffffffffffffffff1673ffffffffffffffffffffffffffffffffffffffff161415156119f557600080fd5b84600160008273ffffffffffffffffffffffffffffffffffffffff1673ffffffffffffffffffffffffffffffffffffffff16815260200190815260200160002060020160009054906101000a900460ff161515611a5157600080fd5b6000600160008873ffffffffffffffffffffffffffffffffffffffff1673ffffffffffffffffffffffffffffffffffffffff16815260200190815260200160002060020160006101000a81548160ff021916908315150217905550600160045403600481905550600094505b600380549050851015611b85578573ffffffffffffffffffffffffffffffffffffffff16600386815481101515611af057fe5b9060005260206000200160009054906101000a900473ffffffffffffffffffffffffffffffffffffffff1673ffffffffffffffffffffffffffffffffffffffff161415611b7857600385815481101515611b4657fe5b9060005260206000200160006101000a81549073ffffffffffffffffffffffffffffffffffffffff0219169055611b85565b8480600101955050611abd565b600160008773ffffffffffffffffffffffffffffffffffffffff1673ffffffffffffffffffffffffffffffffffffffff16815260200190815260200160002060040160003373ffffffffffffffffffffffffffffffffffffffff1673ffffffffffffffffffffffffffffffffffffffff168152602001908152602001600020549350611c5c84600160008973ffffffffffffffffffffffffffffffffffffffff1673ffffffffffffffffffffffffffffffffffffffff168152602001908152602001600020600301546123c390919063ffffffff16565b600160008873ffffffffffffffffffffffffffffffffffffffff1673ffffffffffffffffffffffffffffffffffffffff168152602001908152602001600020600301819055506000600160008873ffffffffffffffffffffffffffffffffffffffff1673ffffffffffffffffffffffffffffffffffffffff16815260200190815260200160002060040160003373ffffffffffffffffffffffffffffffffffffffff1673ffffffffffffffffffffffffffffffffffffffff16815260200190815260200160002081905550611d3c436007546123dc90919063ffffffff16565b9250611da3846000803373ffffffffffffffffffffffffffffffffffffffff1673ffffffffffffffffffffffffffffffffffffffff1681526020019081526020016000206000016000868152602001908152602001600020546123dc90919063ffffffff16565b6000803373ffffffffffffffffffffffffffffffffffffffff1673ffffffffffffffffffffffffffffffffffffffff1681526020019081526020016000206000016000858152602001908152602001600020819055506000803373ffffffffffffffffffffffffffffffffffffffff1673ffffffffffffffffffffffffffffffffffffffff1681526020019081526020016000206001018390806001815401808255809150509060018203906000526020600020016000909192909190915055507f4edf3e325d0063213a39f9085522994a1c44bea5f39e7d63ef61260a1e58c6d33387604051808373ffffffffffffffffffffffffffffffffffffffff1673ffffffffffffffffffffffffffffffffffffffff1681526020018273ffffffffffffffffffffffffffffffffffffffff1673ffffffffffffffffffffffffffffffffffffffff1681526020019250505060405180910390a1505050505050565b6000600160008373ffffffffffffffffffffffffffffffffffffffff1673ffffffffffffffffffffffffffffffffffffffff16815260200190815260200160002060000160009054906101000a900473ffffffffffffffffffffffffffffffffffffffff169050919050565b60065481565b60075481565b6000600160008373ffffffffffffffffffffffffffffffffffffffff1673ffffffffffffffffffffffffffffffffffffffff16815260200190815260200160002060020160009054906101000a900460ff169050919050565b60055481565b6005543410151515611feb57600080fd5b82600160008273ffffffffffffffffffffffffffffffffffffffff1673ffffffffffffffffffffffffffffffffffffffff16815260200190815260200160002060020160009054906101000a900460ff1615151561204857600080fd5b60038490806001815401808255809150509060018203906000526020600020016000909192909190916101000a81548173ffffffffffffffffffffffffffffffffffffffff021916908373ffffffffffffffffffffffffffffffffffffffff160217905550506080604051908101604052803373ffffffffffffffffffffffffffffffffffffffff16815260200184848080601f016020809104026020016040519081016040528093929190818152602001838380828437820191505050505050815260200160011515815260200134815250600160008673ffffffffffffffffffffffffffffffffffffffff1673ffffffffffffffffffffffffffffffffffffffff16815260200190815260200160002060008201518160000160006101000a81548173ffffffffffffffffffffffffffffffffffffffff021916908373ffffffffffffffffffffffffffffffffffffffff16021790555060208201518160010190805190602001906121bd92919061247a565b5060408201518160020160006101000a81548160ff0219169083151502179055506060820151816003015590505034600160008673ffffffffffffffffffffffffffffffffffffffff1673ffffffffffffffffffffffffffffffffffffffff16815260200190815260200160002060040160003373ffffffffffffffffffffffffffffffffffffffff1673ffffffffffffffffffffffffffffffffffffffff16815260200190815260200160002081905550600160045401600481905550600260008573ffffffffffffffffffffffffffffffffffffffff1673ffffffffffffffffffffffffffffffffffffffff1681526020019081526020016000208490806001815401808255809150509060018203906000526020600020016000909192909190916101000a81548173ffffffffffffffffffffffffffffffffffffffff021916908373ffffffffffffffffffffffffffffffffffffffff160217905550507f7635f1d87b47fba9f2b09e56eb4be75cca030e0cb179c1602ac9261d39a8f5c1338534604051808473ffffffffffffffffffffffffffffffffffffffff1673ffffffffffffffffffffffffffffffffffffffff1681526020018373ffffffffffffffffffffffffffffffffffffffff1673ffffffffffffffffffffffffffffffffffffffff168152602001828152602001935050505060405180910390a150505050565b60008282111515156123d157fe5b818303905092915050565b60008082840190508381101515156123f057fe5b8091505092915050565b828054600181600116156101000203166002900490600052602060002090601f016020900481019282601f1061243b57805160ff1916838001178555612469565b82800160010185558215612469579182015b8281111561246857825182559160200191906001019061244d565b5b50905061247691906124fa565b5090565b828054600181600116156101000203166002900490600052602060002090601f016020900481019282601f106124bb57805160ff19168380011785556124e9565b828001600101855582156124e9579182015b828111156124e85782518255916020019190600101906124cd565b5b5090506124f691906124fa565b5090565b61251c91905b80821115612518576000816000905550600101612500565b5090565b905600a165627a7a72305820b60c2b2f0058fcacfa50c990265d242ee26192b06046945eafc86cab1ce319ae0029",
  "source": "pragma solidity ^0.4.21;\n\nimport \"./libs/SafeMath.sol\";\n\ncontract TomoValidator {\n    using SafeMath for uint256;\n\n    event Vote(address _voter, address _candidate, uint256 _cap);\n    event Unvote(address _voter, address _candidate, uint256 _cap);\n    event Propose(address _owner, address _candidate, uint256 _cap);\n    event Resign(address _owner, address _candidate);\n    event SetNodeId(address _owner, address _candidate, string _nodeId);\n    event Withdraw(address _owner, uint256 _blockNumber, uint256 _cap);\n\n    struct ValidatorState {\n        address owner;\n        string nodeId;\n        bool isCandidate;\n        uint256 cap;\n        mapping(address => uint256) voters;\n    }\n\n    struct WithdrawState {\n      mapping(uint256 => uint256) caps;\n      uint256[] blockNumbers;\n    }\n\n    mapping(address => WithdrawState) withdrawsState;\n\n    mapping(address => ValidatorState) validatorsState;\n    mapping(address => address[]) voters;\n    address[] public candidates;\n\n    uint256 public candidateCount = 3;\n    uint256 public minCandidateCap;\n    uint256 public maxValidatorNumber;\n    uint256 public candidateWithdrawDelay;\n    uint256 public voterWithdrawDelay;\n\n    modifier onlyValidCandidateCap {\n        // anyone can deposit X TOMO to become a candidate\n        require(msg.value >= minCandidateCap);\n        _;\n    }\n\n    modifier onlyOwner(address _candidate) {\n        require(validatorsState[_candidate].owner == msg.sender);\n        _;\n    }\n\n    modifier onlyCandidate(address _candidate) {\n        require(validatorsState[_candidate].isCandidate);\n        _;\n    }\n\n    modifier onlyValidCandidate (address _candidate) {\n        require(validatorsState[_candidate].isCandidate);\n        _;\n    }\n\n    modifier onlyNotCandidate (address _candidate) {\n        require(!validatorsState[_candidate].isCandidate);\n        _;\n    }\n\n    modifier onlyValidVote (address _candidate, uint256 _cap) {\n        require(validatorsState[_candidate].voters[msg.sender] >= _cap);\n        _;\n    }\n\n    modifier onlyValidWithdraw (uint256 _blockNumber, uint _index) {\n        require(_blockNumber > 0);\n        require(block.number >= _blockNumber);\n        require(withdrawsState[msg.sender].caps[_blockNumber] > 0);\n        require(withdrawsState[msg.sender].blockNumbers[_index] == _blockNumber);\n        _;\n    }\n\n    function TomoValidator (\n        address[] _candidates,\n        uint256[] _caps,\n        address _firstOwner,\n        uint256 _minCandidateCap,\n        uint256 _maxValidatorNumber,\n        uint256 _candidateWithdrawDelay,\n        uint256 _voterWithdrawDelay\n    ) public {\n        minCandidateCap = _minCandidateCap;\n        maxValidatorNumber = _maxValidatorNumber;\n        candidateWithdrawDelay = _candidateWithdrawDelay;\n        voterWithdrawDelay = _voterWithdrawDelay;\n\n        for (uint256 i = 0; i < _candidates.length; i++) {\n            candidates.push(_candidates[i]);\n            validatorsState[_candidates[i]] = ValidatorState({\n                owner: _firstOwner,\n                nodeId: '',\n                isCandidate: true,\n                cap: _caps[i]\n            });\n            voters[_candidates[i]].push(_firstOwner);\n            validatorsState[candidates[i]].voters[_firstOwner] = minCandidateCap;\n        }\n    }\n\n    function propose(address _candidate, string _nodeId) external payable onlyValidCandidateCap onlyNotCandidate(_candidate) {\n        candidates.push(_candidate);\n        validatorsState[_candidate] = ValidatorState({\n            owner: msg.sender,\n            nodeId: _nodeId,\n            isCandidate: true,\n            cap: msg.value\n        });\n        validatorsState[_candidate].voters[msg.sender] = msg.value;\n        candidateCount = candidateCount + 1;\n        voters[_candidate].push(_candidate);\n        emit Propose(msg.sender, _candidate, msg.value);\n    }\n\n    function vote(address _candidate) external payable onlyValidCandidate(_candidate) {\n        validatorsState[_candidate].cap = validatorsState[_candidate].cap.add(msg.value);\n        if (validatorsState[_candidate].voters[msg.sender] == 0) {\n            voters[_candidate].push(msg.sender);\n        }\n        validatorsState[_candidate].voters[msg.sender] = validatorsState[_candidate].voters[msg.sender].add(msg.value);\n        emit Vote(msg.sender, _candidate, msg.value);\n    }\n\n    function getCandidates() public view returns(address[]) {\n        return candidates;\n    }\n\n    function getCandidateCap(address _candidate) public view returns(uint256) {\n        return validatorsState[_candidate].cap;\n    }\n\n    function getCandidateNodeId(address _candidate) public view returns(string) {\n        return validatorsState[_candidate].nodeId;\n    }\n\n    function getCandidateOwner(address _candidate) public view returns(address) {\n        return validatorsState[_candidate].owner;\n    }\n\n    function getVoterCap(address _candidate, address _voter) public view returns(uint256) {\n        return validatorsState[_candidate].voters[_voter];\n    }\n\n    function getVoters(address _candidate) public view returns(address[]) {\n        return voters[_candidate];\n    }\n\n    function isCandidate(address _candidate) public view returns(bool) {\n        return validatorsState[_candidate].isCandidate;\n    }\n\n    function getWithdrawBlockNumbers() public view returns(uint256[]) {\n        return withdrawsState[msg.sender].blockNumbers;\n    }\n\n    function getWithdrawCap(uint256 _blockNumber) public view returns(uint256) {\n        return withdrawsState[msg.sender].caps[_blockNumber];\n    }\n\n    function unvote(address _candidate, uint256 _cap) public onlyValidVote(_candidate, _cap) {\n        validatorsState[_candidate].cap = validatorsState[_candidate].cap.sub(_cap);\n        validatorsState[_candidate].voters[msg.sender] = validatorsState[_candidate].voters[msg.sender].sub(_cap);\n\n        // refund after delay X blocks\n        uint256 withdrawBlockNumber = voterWithdrawDelay.add(block.number);\n        withdrawsState[msg.sender].caps[withdrawBlockNumber] = withdrawsState[msg.sender].caps[withdrawBlockNumber].add(_cap);\n        withdrawsState[msg.sender].blockNumbers.push(withdrawBlockNumber);\n\n        emit Unvote(msg.sender, _candidate, _cap);\n    }\n\n    function setNodeId(address _candidate, string _nodeId) public onlyOwner(_candidate) {\n        validatorsState[_candidate].nodeId = _nodeId;\n        emit SetNodeId(msg.sender, _candidate, _nodeId);\n    }\n\n    function resign(address _candidate) public onlyOwner(_candidate) onlyCandidate(_candidate) {\n        validatorsState[_candidate].isCandidate = false;\n        candidateCount = candidateCount - 1;\n        for (uint256 i = 0; i < candidates.length; i++) {\n            if (candidates[i] == _candidate) {\n                delete candidates[i];\n                break;\n            }\n        }\n        uint256 cap = validatorsState[_candidate].voters[msg.sender];\n        validatorsState[_candidate].cap = validatorsState[_candidate].cap.sub(cap);\n        validatorsState[_candidate].voters[msg.sender] = 0;\n        // refunding after retiring X blocks\n        uint256 withdrawBlockNumber = candidateWithdrawDelay.add(block.number);\n        withdrawsState[msg.sender].caps[withdrawBlockNumber] = withdrawsState[msg.sender].caps[withdrawBlockNumber].add(cap);\n        withdrawsState[msg.sender].blockNumbers.push(withdrawBlockNumber);\n        emit Resign(msg.sender, _candidate);\n    }\n\n    function withdraw(uint256 _blockNumber, uint _index) public onlyValidWithdraw(_blockNumber, _index) {\n        uint256 cap = withdrawsState[msg.sender].caps[_blockNumber];\n        delete withdrawsState[msg.sender].caps[_blockNumber];\n        delete withdrawsState[msg.sender].blockNumbers[_index];\n        msg.sender.transfer(cap);\n        emit Withdraw(msg.sender, _blockNumber, cap);\n    }\n}\n",
  "sourcePath": "/home/vagrant/projects/tomomaster/contracts/TomoValidator.sol",
  "compiler": {
    "name": "solc",
    "version": "0.4.24+commit.e67f0147.Emscripten.clang"
  },
  "schemaVersion": "2.0.1",
  "updatedAt": "2018-08-09T06:00:01.196Z"
}