{
  "contractName": "TomoValidator",
  "abi": [
    {
      "constant": true,
      "inputs": [
        {
          "name": "",
          "type": "uint256"
        }
      ],
      "name": "candidates",
      "outputs": [
        {
          "name": "",
          "type": "address"
        }
      ],
      "payable": false,
      "stateMutability": "view",
      "type": "function"
    },
    {
      "constant": true,
      "inputs": [],
      "name": "candidateCount",
      "outputs": [
        {
          "name": "",
          "type": "uint256"
        }
      ],
      "payable": false,
      "stateMutability": "view",
      "type": "function"
    },
    {
      "constant": true,
      "inputs": [],
      "name": "voterWithdrawDelay",
      "outputs": [
        {
          "name": "",
          "type": "uint256"
        }
      ],
      "payable": false,
      "stateMutability": "view",
      "type": "function"
    },
    {
      "constant": true,
      "inputs": [],
      "name": "maxValidatorNumber",
      "outputs": [
        {
          "name": "",
          "type": "uint256"
        }
      ],
      "payable": false,
      "stateMutability": "view",
      "type": "function"
    },
    {
      "constant": true,
      "inputs": [],
      "name": "candidateWithdrawDelay",
      "outputs": [
        {
          "name": "",
          "type": "uint256"
        }
      ],
      "payable": false,
      "stateMutability": "view",
      "type": "function"
    },
    {
      "constant": true,
      "inputs": [],
      "name": "minCandidateCap",
      "outputs": [
        {
          "name": "",
          "type": "uint256"
        }
      ],
      "payable": false,
      "stateMutability": "view",
      "type": "function"
    },
    {
      "inputs": [
        {
          "name": "_candidates",
          "type": "address[]"
        },
        {
          "name": "_caps",
          "type": "uint256[]"
        },
        {
          "name": "_firstOwner",
          "type": "address"
        },
        {
          "name": "_minCandidateCap",
          "type": "uint256"
        },
        {
          "name": "_maxValidatorNumber",
          "type": "uint256"
        },
        {
          "name": "_candidateWithdrawDelay",
          "type": "uint256"
        },
        {
          "name": "_voterWithdrawDelay",
          "type": "uint256"
        }
      ],
      "payable": false,
      "stateMutability": "nonpayable",
      "type": "constructor"
    },
    {
      "anonymous": false,
      "inputs": [
        {
          "indexed": false,
          "name": "_voter",
          "type": "address"
        },
        {
          "indexed": false,
          "name": "_candidate",
          "type": "address"
        },
        {
          "indexed": false,
          "name": "_cap",
          "type": "uint256"
        }
      ],
      "name": "Vote",
      "type": "event"
    },
    {
      "anonymous": false,
      "inputs": [
        {
          "indexed": false,
          "name": "_voter",
          "type": "address"
        },
        {
          "indexed": false,
          "name": "_candidate",
          "type": "address"
        },
        {
          "indexed": false,
          "name": "_cap",
          "type": "uint256"
        }
      ],
      "name": "Unvote",
      "type": "event"
    },
    {
      "anonymous": false,
      "inputs": [
        {
          "indexed": false,
          "name": "_owner",
          "type": "address"
        },
        {
          "indexed": false,
          "name": "_candidate",
          "type": "address"
        },
        {
          "indexed": false,
          "name": "_cap",
          "type": "uint256"
        }
      ],
      "name": "Propose",
      "type": "event"
    },
    {
      "anonymous": false,
      "inputs": [
        {
          "indexed": false,
          "name": "_owner",
          "type": "address"
        },
        {
          "indexed": false,
          "name": "_candidate",
          "type": "address"
        }
      ],
      "name": "Resign",
      "type": "event"
    },
    {
      "anonymous": false,
      "inputs": [
        {
          "indexed": false,
          "name": "_owner",
          "type": "address"
        },
        {
          "indexed": false,
          "name": "_candidate",
          "type": "address"
        },
        {
          "indexed": false,
          "name": "_nodeId",
          "type": "string"
        }
      ],
      "name": "SetNodeId",
      "type": "event"
    },
    {
      "anonymous": false,
      "inputs": [
        {
          "indexed": false,
          "name": "_owner",
          "type": "address"
        },
        {
          "indexed": false,
          "name": "_blockNumber",
          "type": "uint256"
        },
        {
          "indexed": false,
          "name": "_cap",
          "type": "uint256"
        }
      ],
      "name": "Withdraw",
      "type": "event"
    },
    {
      "constant": false,
      "inputs": [
        {
          "name": "_candidate",
          "type": "address"
        },
        {
          "name": "_nodeId",
          "type": "string"
        }
      ],
      "name": "propose",
      "outputs": [],
      "payable": true,
      "stateMutability": "payable",
      "type": "function"
    },
    {
      "constant": false,
      "inputs": [
        {
          "name": "_candidate",
          "type": "address"
        }
      ],
      "name": "vote",
      "outputs": [],
      "payable": true,
      "stateMutability": "payable",
      "type": "function"
    },
    {
      "constant": true,
      "inputs": [],
      "name": "getCandidates",
      "outputs": [
        {
          "name": "",
          "type": "address[]"
        }
      ],
      "payable": false,
      "stateMutability": "view",
      "type": "function"
    },
    {
      "constant": true,
      "inputs": [
        {
          "name": "_candidate",
          "type": "address"
        }
      ],
      "name": "getCandidateCap",
      "outputs": [
        {
          "name": "",
          "type": "uint256"
        }
      ],
      "payable": false,
      "stateMutability": "view",
      "type": "function"
    },
    {
      "constant": true,
      "inputs": [
        {
          "name": "_candidate",
          "type": "address"
        }
      ],
      "name": "getCandidateNodeId",
      "outputs": [
        {
          "name": "",
          "type": "string"
        }
      ],
      "payable": false,
      "stateMutability": "view",
      "type": "function"
    },
    {
      "constant": true,
      "inputs": [
        {
          "name": "_candidate",
          "type": "address"
        }
      ],
      "name": "getCandidateOwner",
      "outputs": [
        {
          "name": "",
          "type": "address"
        }
      ],
      "payable": false,
      "stateMutability": "view",
      "type": "function"
    },
    {
      "constant": true,
      "inputs": [
        {
          "name": "_candidate",
          "type": "address"
        },
        {
          "name": "_voter",
          "type": "address"
        }
      ],
      "name": "getVoterCap",
      "outputs": [
        {
          "name": "",
          "type": "uint256"
        }
      ],
      "payable": false,
      "stateMutability": "view",
      "type": "function"
    },
    {
      "constant": true,
      "inputs": [
        {
          "name": "_candidate",
          "type": "address"
        }
      ],
      "name": "getVoters",
      "outputs": [
        {
          "name": "",
          "type": "address[]"
        }
      ],
      "payable": false,
      "stateMutability": "view",
      "type": "function"
    },
    {
      "constant": true,
      "inputs": [
        {
          "name": "_candidate",
          "type": "address"
        }
      ],
      "name": "isCandidate",
      "outputs": [
        {
          "name": "",
          "type": "bool"
        }
      ],
      "payable": false,
      "stateMutability": "view",
      "type": "function"
    },
    {
      "constant": true,
      "inputs": [],
      "name": "getWithdrawBlockNumbers",
      "outputs": [
        {
          "name": "",
          "type": "uint256[]"
        }
      ],
      "payable": false,
      "stateMutability": "view",
      "type": "function"
    },
    {
      "constant": false,
      "inputs": [
        {
          "name": "_candidate",
          "type": "address"
        },
        {
          "name": "_cap",
          "type": "uint256"
        }
      ],
      "name": "unvote",
      "outputs": [],
      "payable": false,
      "stateMutability": "nonpayable",
      "type": "function"
    },
    {
      "constant": false,
      "inputs": [
        {
          "name": "_candidate",
          "type": "address"
        },
        {
          "name": "_nodeId",
          "type": "string"
        }
      ],
      "name": "setNodeId",
      "outputs": [],
      "payable": false,
      "stateMutability": "nonpayable",
      "type": "function"
    },
    {
      "constant": false,
      "inputs": [
        {
          "name": "_candidate",
          "type": "address"
        }
      ],
      "name": "resign",
      "outputs": [],
      "payable": false,
      "stateMutability": "nonpayable",
      "type": "function"
    },
    {
      "constant": false,
      "inputs": [
        {
          "name": "_blockNumber",
          "type": "uint256"
        },
        {
          "name": "_index",
          "type": "uint256"
        }
      ],
      "name": "withdraw",
      "outputs": [],
      "payable": false,
      "stateMutability": "nonpayable",
      "type": "function"
    }
  ],
  "bytecode": "0x608060405260036004553480156200001657600080fd5b506040516200296b3803806200296b83398101806040528101908080518201929190602001805182019291906020018051906020019092919080519060200190929190805190602001909291908051906020019092919080519060200190929190505050600084600581905550836006819055508260078190555081600881905550600090505b8751811015620003fb5760038882815181101515620000b857fe5b9060200190602002015190806001815401808255809150509060018203906000526020600020016000909192909190916101000a81548173ffffffffffffffffffffffffffffffffffffffff021916908373ffffffffffffffffffffffffffffffffffffffff160217905550506080604051908101604052808773ffffffffffffffffffffffffffffffffffffffff1681526020016020604051908101604052806000815250815260200160011515815260200188838151811015156200017b57fe5b90602001906020020151815250600160008a848151811015156200019b57fe5b9060200190602002015173ffffffffffffffffffffffffffffffffffffffff1673ffffffffffffffffffffffffffffffffffffffff16815260200190815260200160002060008201518160000160006101000a81548173ffffffffffffffffffffffffffffffffffffffff021916908373ffffffffffffffffffffffffffffffffffffffff16021790555060208201518160010190805190602001906200024492919062000409565b5060408201518160020160006101000a81548160ff021916908315150217905550606082015181600301559050506002600089838151811015156200028557fe5b9060200190602002015173ffffffffffffffffffffffffffffffffffffffff1673ffffffffffffffffffffffffffffffffffffffff1681526020019081526020016000208690806001815401808255809150509060018203906000526020600020016000909192909190916101000a81548173ffffffffffffffffffffffffffffffffffffffff021916908373ffffffffffffffffffffffffffffffffffffffff16021790555050600554600160006003848154811015156200034457fe5b9060005260206000200160009054906101000a900473ffffffffffffffffffffffffffffffffffffffff1673ffffffffffffffffffffffffffffffffffffffff1673ffffffffffffffffffffffffffffffffffffffff16815260200190815260200160002060040160008873ffffffffffffffffffffffffffffffffffffffff1673ffffffffffffffffffffffffffffffffffffffff1681526020019081526020016000208190555080806001019150506200009d565b5050505050505050620004b8565b828054600181600116156101000203166002900490600052602060002090601f016020900481019282601f106200044c57805160ff19168380011785556200047d565b828001600101855582156200047d579182015b828111156200047c5782518255916020019190600101906200045f565b5b5090506200048c919062000490565b5090565b620004b591905b80821115620004b157600081600090555060010162000497565b5090565b90565b6124a380620004c86000396000f300608060405260043610610112576000357c0100000000000000000000000000000000000000000000000000000000900463ffffffff16806302aa9be21461011757806306a49fce146101645780632d15cc04146101d05780632f9c4bba14610268578063302b6872146102d45780633477ee2e1461034b578063441a3e70146103b857806358e7525f146103ef5780636a000d74146104465780636dd7d8ea146104cf5780637d40257f14610505578063a9a981a3146105c1578063a9ff959e146105ec578063ae6e43f514610617578063b642facd1461065a578063d09f1ab4146106dd578063d161c76714610708578063d51b9e9314610733578063d55b7dff1461078e578063d6f0948c146107b9575b600080fd5b34801561012357600080fd5b50610162600480360381019080803573ffffffffffffffffffffffffffffffffffffffff16906020019092919080359060200190929190505050610807565b005b34801561017057600080fd5b50610179610c2c565b6040518080602001828103825283818151815260200191508051906020019060200280838360005b838110156101bc5780820151818401526020810190506101a1565b505050509050019250505060405180910390f35b3480156101dc57600080fd5b50610211600480360381019080803573ffffffffffffffffffffffffffffffffffffffff169060200190929190505050610cba565b6040518080602001828103825283818151815260200191508051906020019060200280838360005b83811015610254578082015181840152602081019050610239565b505050509050019250505060405180910390f35b34801561027457600080fd5b5061027d610d87565b6040518080602001828103825283818151815260200191508051906020019060200280838360005b838110156102c05780820151818401526020810190506102a5565b505050509050019250505060405180910390f35b3480156102e057600080fd5b50610335600480360381019080803573ffffffffffffffffffffffffffffffffffffffff169060200190929190803573ffffffffffffffffffffffffffffffffffffffff169060200190929190505050610e1e565b6040518082815260200191505060405180910390f35b34801561035757600080fd5b5061037660048036038101908080359060200190929190505050610ea8565b604051808273ffffffffffffffffffffffffffffffffffffffff1673ffffffffffffffffffffffffffffffffffffffff16815260200191505060405180910390f35b3480156103c457600080fd5b506103ed6004803603810190808035906020019092919080359060200190929190505050610ee6565b005b3480156103fb57600080fd5b50610430600480360381019080803573ffffffffffffffffffffffffffffffffffffffff169060200190929190505050611197565b6040518082815260200191505060405180910390f35b34801561045257600080fd5b506104cd600480360381019080803573ffffffffffffffffffffffffffffffffffffffff169060200190929190803590602001908201803590602001908080601f01602080910402602001604051908101604052809392919081815260200183838082843782019150505050505091929192905050506111e3565b005b610503600480360381019080803573ffffffffffffffffffffffffffffffffffffffff1690602001909291905050506113e0565b005b34801561051157600080fd5b50610546600480360381019080803573ffffffffffffffffffffffffffffffffffffffff1690602001909291905050506117bb565b6040518080602001828103825283818151815260200191508051906020019080838360005b8381101561058657808201518184015260208101905061056b565b50505050905090810190601f1680156105b35780820380516001836020036101000a031916815260200191505b509250505060405180910390f35b3480156105cd57600080fd5b506105d661189f565b6040518082815260200191505060405180910390f35b3480156105f857600080fd5b506106016118a5565b6040518082815260200191505060405180910390f35b34801561062357600080fd5b50610658600480360381019080803573ffffffffffffffffffffffffffffffffffffffff1690602001909291905050506118ab565b005b34801561066657600080fd5b5061069b600480360381019080803573ffffffffffffffffffffffffffffffffffffffff169060200190929190505050611e5b565b604051808273ffffffffffffffffffffffffffffffffffffffff1673ffffffffffffffffffffffffffffffffffffffff16815260200191505060405180910390f35b3480156106e957600080fd5b506106f2611ec7565b6040518082815260200191505060405180910390f35b34801561071457600080fd5b5061071d611ecd565b6040518082815260200191505060405180910390f35b34801561073f57600080fd5b50610774600480360381019080803573ffffffffffffffffffffffffffffffffffffffff169060200190929190505050611ed3565b604051808215151515815260200191505060405180910390f35b34801561079a57600080fd5b506107a3611f2c565b6040518082815260200191505060405180910390f35b610805600480360381019080803573ffffffffffffffffffffffffffffffffffffffff169060200190929190803590602001908201803590602001919091929391929390505050611f32565b005b6000828280600160008473ffffffffffffffffffffffffffffffffffffffff1673ffffffffffffffffffffffffffffffffffffffff16815260200190815260200160002060040160003373ffffffffffffffffffffffffffffffffffffffff1673ffffffffffffffffffffffffffffffffffffffff168152602001908152602001600020541015151561089957600080fd5b6108ee84600160008873ffffffffffffffffffffffffffffffffffffffff1673ffffffffffffffffffffffffffffffffffffffff1681526020019081526020016000206003015461231b90919063ffffffff16565b600160008773ffffffffffffffffffffffffffffffffffffffff1673ffffffffffffffffffffffffffffffffffffffff168152602001908152602001600020600301819055506109c684600160008873ffffffffffffffffffffffffffffffffffffffff1673ffffffffffffffffffffffffffffffffffffffff16815260200190815260200160002060040160003373ffffffffffffffffffffffffffffffffffffffff1673ffffffffffffffffffffffffffffffffffffffff1681526020019081526020016000205461231b90919063ffffffff16565b600160008773ffffffffffffffffffffffffffffffffffffffff1673ffffffffffffffffffffffffffffffffffffffff16815260200190815260200160002060040160003373ffffffffffffffffffffffffffffffffffffffff1673ffffffffffffffffffffffffffffffffffffffff16815260200190815260200160002081905550610a5e4360085461233490919063ffffffff16565b9250610ac5846000803373ffffffffffffffffffffffffffffffffffffffff1673ffffffffffffffffffffffffffffffffffffffff16815260200190815260200160002060000160008681526020019081526020016000205461233490919063ffffffff16565b6000803373ffffffffffffffffffffffffffffffffffffffff1673ffffffffffffffffffffffffffffffffffffffff1681526020019081526020016000206000016000858152602001908152602001600020819055506000803373ffffffffffffffffffffffffffffffffffffffff1673ffffffffffffffffffffffffffffffffffffffff1681526020019081526020016000206001018390806001815401808255809150509060018203906000526020600020016000909192909190915055507faa0e554f781c3c3b2be110a0557f260f11af9a8aa2c64bc1e7a31dbb21e32fa2338686604051808473ffffffffffffffffffffffffffffffffffffffff1673ffffffffffffffffffffffffffffffffffffffff1681526020018373ffffffffffffffffffffffffffffffffffffffff1673ffffffffffffffffffffffffffffffffffffffff168152602001828152602001935050505060405180910390a15050505050565b60606003805480602002602001604051908101604052809291908181526020018280548015610cb057602002820191906000526020600020905b8160009054906101000a900473ffffffffffffffffffffffffffffffffffffffff1673ffffffffffffffffffffffffffffffffffffffff1681526020019060010190808311610c66575b5050505050905090565b6060600260008373ffffffffffffffffffffffffffffffffffffffff1673ffffffffffffffffffffffffffffffffffffffff168152602001908152602001600020805480602002602001604051908101604052809291908181526020018280548015610d7b57602002820191906000526020600020905b8160009054906101000a900473ffffffffffffffffffffffffffffffffffffffff1673ffffffffffffffffffffffffffffffffffffffff1681526020019060010190808311610d31575b50505050509050919050565b60606000803373ffffffffffffffffffffffffffffffffffffffff1673ffffffffffffffffffffffffffffffffffffffff168152602001908152602001600020600101805480602002602001604051908101604052809291908181526020018280548015610e1457602002820191906000526020600020905b815481526020019060010190808311610e00575b5050505050905090565b6000600160008473ffffffffffffffffffffffffffffffffffffffff1673ffffffffffffffffffffffffffffffffffffffff16815260200190815260200160002060040160008373ffffffffffffffffffffffffffffffffffffffff1673ffffffffffffffffffffffffffffffffffffffff16815260200190815260200160002054905092915050565b600381815481101515610eb757fe5b906000526020600020016000915054906101000a900473ffffffffffffffffffffffffffffffffffffffff1681565b60008282600082111515610ef957600080fd5b814310151515610f0857600080fd5b60008060003373ffffffffffffffffffffffffffffffffffffffff1673ffffffffffffffffffffffffffffffffffffffff168152602001908152602001600020600001600084815260200190815260200160002054111515610f6957600080fd5b816000803373ffffffffffffffffffffffffffffffffffffffff1673ffffffffffffffffffffffffffffffffffffffff16815260200190815260200160002060010182815481101515610fb857fe5b9060005260206000200154141515610fcf57600080fd5b6000803373ffffffffffffffffffffffffffffffffffffffff1673ffffffffffffffffffffffffffffffffffffffff16815260200190815260200160002060000160008681526020019081526020016000205492506000803373ffffffffffffffffffffffffffffffffffffffff1673ffffffffffffffffffffffffffffffffffffffff1681526020019081526020016000206000016000868152602001908152602001600020600090556000803373ffffffffffffffffffffffffffffffffffffffff1673ffffffffffffffffffffffffffffffffffffffff168152602001908152602001600020600101848154811015156110c857fe5b90600052602060002001600090553373ffffffffffffffffffffffffffffffffffffffff166108fc849081150290604051600060405180830381858888f1935050505015801561111c573d6000803e3d6000fd5b507ff279e6a1f5e320cca91135676d9cb6e44ca8a08c0b88342bcdb1144f6511b568338685604051808473ffffffffffffffffffffffffffffffffffffffff1673ffffffffffffffffffffffffffffffffffffffff168152602001838152602001828152602001935050505060405180910390a15050505050565b6000600160008373ffffffffffffffffffffffffffffffffffffffff1673ffffffffffffffffffffffffffffffffffffffff168152602001908152602001600020600301549050919050565b813373ffffffffffffffffffffffffffffffffffffffff16600160008373ffffffffffffffffffffffffffffffffffffffff1673ffffffffffffffffffffffffffffffffffffffff16815260200190815260200160002060000160009054906101000a900473ffffffffffffffffffffffffffffffffffffffff1673ffffffffffffffffffffffffffffffffffffffff1614151561128057600080fd5b81600160008573ffffffffffffffffffffffffffffffffffffffff1673ffffffffffffffffffffffffffffffffffffffff16815260200190815260200160002060010190805190602001906112d6929190612352565b507f0e421c04ccd34fafbe77c6b2f9384de8c5c4795114325fedb698a6ce62b2d744338484604051808473ffffffffffffffffffffffffffffffffffffffff1673ffffffffffffffffffffffffffffffffffffffff1681526020018373ffffffffffffffffffffffffffffffffffffffff1673ffffffffffffffffffffffffffffffffffffffff16815260200180602001828103825283818151815260200191508051906020019080838360005b8381101561139f578082015181840152602081019050611384565b50505050905090810190601f1680156113cc5780820380516001836020036101000a031916815260200191505b5094505050505060405180910390a1505050565b80600160008273ffffffffffffffffffffffffffffffffffffffff1673ffffffffffffffffffffffffffffffffffffffff16815260200190815260200160002060020160009054906101000a900460ff16151561143c57600080fd5b61149134600160008573ffffffffffffffffffffffffffffffffffffffff1673ffffffffffffffffffffffffffffffffffffffff1681526020019081526020016000206003015461233490919063ffffffff16565b600160008473ffffffffffffffffffffffffffffffffffffffff1673ffffffffffffffffffffffffffffffffffffffff168152602001908152602001600020600301819055506000600160008473ffffffffffffffffffffffffffffffffffffffff1673ffffffffffffffffffffffffffffffffffffffff16815260200190815260200160002060040160003373ffffffffffffffffffffffffffffffffffffffff1673ffffffffffffffffffffffffffffffffffffffff16815260200190815260200160002054141561160357600260008373ffffffffffffffffffffffffffffffffffffffff1673ffffffffffffffffffffffffffffffffffffffff1681526020019081526020016000203390806001815401808255809150509060018203906000526020600020016000909192909190916101000a81548173ffffffffffffffffffffffffffffffffffffffff021916908373ffffffffffffffffffffffffffffffffffffffff160217905550505b61169534600160008573ffffffffffffffffffffffffffffffffffffffff1673ffffffffffffffffffffffffffffffffffffffff16815260200190815260200160002060040160003373ffffffffffffffffffffffffffffffffffffffff1673ffffffffffffffffffffffffffffffffffffffff1681526020019081526020016000205461233490919063ffffffff16565b600160008473ffffffffffffffffffffffffffffffffffffffff1673ffffffffffffffffffffffffffffffffffffffff16815260200190815260200160002060040160003373ffffffffffffffffffffffffffffffffffffffff1673ffffffffffffffffffffffffffffffffffffffff168152602001908152602001600020819055507f66a9138482c99e9baf08860110ef332cc0c23b4a199a53593d8db0fc8f96fbfc338334604051808473ffffffffffffffffffffffffffffffffffffffff1673ffffffffffffffffffffffffffffffffffffffff1681526020018373ffffffffffffffffffffffffffffffffffffffff1673ffffffffffffffffffffffffffffffffffffffff168152602001828152602001935050505060405180910390a15050565b6060600160008373ffffffffffffffffffffffffffffffffffffffff1673ffffffffffffffffffffffffffffffffffffffff1681526020019081526020016000206001018054600181600116156101000203166002900480601f0160208091040260200160405190810160405280929190818152602001828054600181600116156101000203166002900480156118935780601f1061186857610100808354040283529160200191611893565b820191906000526020600020905b81548152906001019060200180831161187657829003601f168201915b50505050509050919050565b60045481565b60085481565b6000806000833373ffffffffffffffffffffffffffffffffffffffff16600160008373ffffffffffffffffffffffffffffffffffffffff1673ffffffffffffffffffffffffffffffffffffffff16815260200190815260200160002060000160009054906101000a900473ffffffffffffffffffffffffffffffffffffffff1673ffffffffffffffffffffffffffffffffffffffff1614151561194d57600080fd5b84600160008273ffffffffffffffffffffffffffffffffffffffff1673ffffffffffffffffffffffffffffffffffffffff16815260200190815260200160002060020160009054906101000a900460ff1615156119a957600080fd5b6000600160008873ffffffffffffffffffffffffffffffffffffffff1673ffffffffffffffffffffffffffffffffffffffff16815260200190815260200160002060020160006101000a81548160ff021916908315150217905550600160045403600481905550600094505b600380549050851015611add578573ffffffffffffffffffffffffffffffffffffffff16600386815481101515611a4857fe5b9060005260206000200160009054906101000a900473ffffffffffffffffffffffffffffffffffffffff1673ffffffffffffffffffffffffffffffffffffffff161415611ad057600385815481101515611a9e57fe5b9060005260206000200160006101000a81549073ffffffffffffffffffffffffffffffffffffffff0219169055611add565b8480600101955050611a15565b600160008773ffffffffffffffffffffffffffffffffffffffff1673ffffffffffffffffffffffffffffffffffffffff16815260200190815260200160002060040160003373ffffffffffffffffffffffffffffffffffffffff1673ffffffffffffffffffffffffffffffffffffffff168152602001908152602001600020549350611bb484600160008973ffffffffffffffffffffffffffffffffffffffff1673ffffffffffffffffffffffffffffffffffffffff1681526020019081526020016000206003015461231b90919063ffffffff16565b600160008873ffffffffffffffffffffffffffffffffffffffff1673ffffffffffffffffffffffffffffffffffffffff168152602001908152602001600020600301819055506000600160008873ffffffffffffffffffffffffffffffffffffffff1673ffffffffffffffffffffffffffffffffffffffff16815260200190815260200160002060040160003373ffffffffffffffffffffffffffffffffffffffff1673ffffffffffffffffffffffffffffffffffffffff16815260200190815260200160002081905550611c944360075461233490919063ffffffff16565b9250611cfb846000803373ffffffffffffffffffffffffffffffffffffffff1673ffffffffffffffffffffffffffffffffffffffff16815260200190815260200160002060000160008681526020019081526020016000205461233490919063ffffffff16565b6000803373ffffffffffffffffffffffffffffffffffffffff1673ffffffffffffffffffffffffffffffffffffffff1681526020019081526020016000206000016000858152602001908152602001600020819055506000803373ffffffffffffffffffffffffffffffffffffffff1673ffffffffffffffffffffffffffffffffffffffff1681526020019081526020016000206001018390806001815401808255809150509060018203906000526020600020016000909192909190915055507f4edf3e325d0063213a39f9085522994a1c44bea5f39e7d63ef61260a1e58c6d33387604051808373ffffffffffffffffffffffffffffffffffffffff1673ffffffffffffffffffffffffffffffffffffffff1681526020018273ffffffffffffffffffffffffffffffffffffffff1673ffffffffffffffffffffffffffffffffffffffff1681526020019250505060405180910390a1505050505050565b6000600160008373ffffffffffffffffffffffffffffffffffffffff1673ffffffffffffffffffffffffffffffffffffffff16815260200190815260200160002060000160009054906101000a900473ffffffffffffffffffffffffffffffffffffffff169050919050565b60065481565b60075481565b6000600160008373ffffffffffffffffffffffffffffffffffffffff1673ffffffffffffffffffffffffffffffffffffffff16815260200190815260200160002060020160009054906101000a900460ff169050919050565b60055481565b6005543410151515611f4357600080fd5b82600160008273ffffffffffffffffffffffffffffffffffffffff1673ffffffffffffffffffffffffffffffffffffffff16815260200190815260200160002060020160009054906101000a900460ff16151515611fa057600080fd5b60038490806001815401808255809150509060018203906000526020600020016000909192909190916101000a81548173ffffffffffffffffffffffffffffffffffffffff021916908373ffffffffffffffffffffffffffffffffffffffff160217905550506080604051908101604052803373ffffffffffffffffffffffffffffffffffffffff16815260200184848080601f016020809104026020016040519081016040528093929190818152602001838380828437820191505050505050815260200160011515815260200134815250600160008673ffffffffffffffffffffffffffffffffffffffff1673ffffffffffffffffffffffffffffffffffffffff16815260200190815260200160002060008201518160000160006101000a81548173ffffffffffffffffffffffffffffffffffffffff021916908373ffffffffffffffffffffffffffffffffffffffff16021790555060208201518160010190805190602001906121159291906123d2565b5060408201518160020160006101000a81548160ff0219169083151502179055506060820151816003015590505034600160008673ffffffffffffffffffffffffffffffffffffffff1673ffffffffffffffffffffffffffffffffffffffff16815260200190815260200160002060040160003373ffffffffffffffffffffffffffffffffffffffff1673ffffffffffffffffffffffffffffffffffffffff16815260200190815260200160002081905550600160045401600481905550600260008573ffffffffffffffffffffffffffffffffffffffff1673ffffffffffffffffffffffffffffffffffffffff1681526020019081526020016000208490806001815401808255809150509060018203906000526020600020016000909192909190916101000a81548173ffffffffffffffffffffffffffffffffffffffff021916908373ffffffffffffffffffffffffffffffffffffffff160217905550507f7635f1d87b47fba9f2b09e56eb4be75cca030e0cb179c1602ac9261d39a8f5c1338534604051808473ffffffffffffffffffffffffffffffffffffffff1673ffffffffffffffffffffffffffffffffffffffff1681526020018373ffffffffffffffffffffffffffffffffffffffff1673ffffffffffffffffffffffffffffffffffffffff168152602001828152602001935050505060405180910390a150505050565b600082821115151561232957fe5b818303905092915050565b600080828401905083811015151561234857fe5b8091505092915050565b828054600181600116156101000203166002900490600052602060002090601f016020900481019282601f1061239357805160ff19168380011785556123c1565b828001600101855582156123c1579182015b828111156123c05782518255916020019190600101906123a5565b5b5090506123ce9190612452565b5090565b828054600181600116156101000203166002900490600052602060002090601f016020900481019282601f1061241357805160ff1916838001178555612441565b82800160010185558215612441579182015b82811115612440578251825591602001919060010190612425565b5b50905061244e9190612452565b5090565b61247491905b80821115612470576000816000905550600101612458565b5090565b905600a165627a7a72305820d0541152dc373a454c861b89e8bcbdd38c1ea6824ef029b73e03e3a04d5f7b930029",
  "source": "pragma solidity ^0.4.21;\n\nimport \"./libs/SafeMath.sol\";\n\ncontract TomoValidator {\n    using SafeMath for uint256;\n\n    event Vote(address _voter, address _candidate, uint256 _cap);\n    event Unvote(address _voter, address _candidate, uint256 _cap);\n    event Propose(address _owner, address _candidate, uint256 _cap);\n    event Resign(address _owner, address _candidate);\n    event SetNodeId(address _owner, address _candidate, string _nodeId);\n    event Withdraw(address _owner, uint256 _blockNumber, uint256 _cap);\n\n    struct ValidatorState {\n        address owner;\n        string nodeId;\n        bool isCandidate;\n        uint256 cap;\n        mapping(address => uint256) voters;\n    }\n\n    struct WithdrawState {\n      mapping(uint256 => uint256) caps;\n      uint256[] blockNumbers;\n    }\n\n    mapping(address => WithdrawState) withdrawsState;\n\n    mapping(address => ValidatorState) validatorsState;\n    mapping(address => address[]) voters;\n    address[] public candidates;\n\n    uint256 public candidateCount = 3;\n    uint256 public minCandidateCap;\n    uint256 public maxValidatorNumber;\n    uint256 public candidateWithdrawDelay;\n    uint256 public voterWithdrawDelay;\n\n    modifier onlyValidCandidateCap {\n        // anyone can deposit X TOMO to become a candidate\n        require(msg.value >= minCandidateCap);\n        _;\n    }\n\n    modifier onlyOwner(address _candidate) {\n        require(validatorsState[_candidate].owner == msg.sender);\n        _;\n    }\n\n    modifier onlyCandidate(address _candidate) {\n        require(validatorsState[_candidate].isCandidate);\n        _;\n    }\n\n    modifier onlyValidCandidate (address _candidate) {\n        require(validatorsState[_candidate].isCandidate);\n        _;\n    }\n\n    modifier onlyNotCandidate (address _candidate) {\n        require(!validatorsState[_candidate].isCandidate);\n        _;\n    }\n\n    modifier onlyValidVote (address _candidate, uint256 _cap) {\n        require(validatorsState[_candidate].voters[msg.sender] >= _cap);\n        _;\n    }\n\n    modifier onlyValidWithdraw (uint256 _blockNumber, uint _index) {\n        require(_blockNumber > 0);\n        require(block.number >= _blockNumber);\n        require(withdrawsState[msg.sender].caps[_blockNumber] > 0);\n        require(withdrawsState[msg.sender].blockNumbers[_index] == _blockNumber);\n        _;\n    }\n\n    function TomoValidator (\n        address[] _candidates,\n        uint256[] _caps,\n        address _firstOwner,\n        uint256 _minCandidateCap,\n        uint256 _maxValidatorNumber,\n        uint256 _candidateWithdrawDelay,\n        uint256 _voterWithdrawDelay\n    ) public {\n        minCandidateCap = _minCandidateCap;\n        maxValidatorNumber = _maxValidatorNumber;\n        candidateWithdrawDelay = _candidateWithdrawDelay;\n        voterWithdrawDelay = _voterWithdrawDelay;\n\n        for (uint256 i = 0; i < _candidates.length; i++) {\n            candidates.push(_candidates[i]);\n            validatorsState[_candidates[i]] = ValidatorState({\n                owner: _firstOwner,\n                nodeId: '',\n                isCandidate: true,\n                cap: _caps[i]\n            });\n            voters[_candidates[i]].push(_firstOwner);\n            validatorsState[candidates[i]].voters[_firstOwner] = minCandidateCap;\n        }\n    }\n\n    function propose(address _candidate, string _nodeId) external payable onlyValidCandidateCap onlyNotCandidate(_candidate) {\n        candidates.push(_candidate);\n        validatorsState[_candidate] = ValidatorState({\n            owner: msg.sender,\n            nodeId: _nodeId,\n            isCandidate: true,\n            cap: msg.value\n        });\n        validatorsState[_candidate].voters[msg.sender] = msg.value;\n        candidateCount = candidateCount + 1;\n        voters[_candidate].push(_candidate);\n        emit Propose(msg.sender, _candidate, msg.value);\n    }\n\n    function vote(address _candidate) external payable onlyValidCandidate(_candidate) {\n        validatorsState[_candidate].cap = validatorsState[_candidate].cap.add(msg.value);\n        if (validatorsState[_candidate].voters[msg.sender] == 0) {\n            voters[_candidate].push(msg.sender);\n        }\n        validatorsState[_candidate].voters[msg.sender] = validatorsState[_candidate].voters[msg.sender].add(msg.value);\n        emit Vote(msg.sender, _candidate, msg.value);\n    }\n\n    function getCandidates() public view returns(address[]) {\n        return candidates;\n    }\n\n    function getCandidateCap(address _candidate) public view returns(uint256) {\n        return validatorsState[_candidate].cap;\n    }\n\n    function getCandidateNodeId(address _candidate) public view returns(string) {\n        return validatorsState[_candidate].nodeId;\n    }\n\n    function getCandidateOwner(address _candidate) public view returns(address) {\n        return validatorsState[_candidate].owner;\n    }\n\n    function getVoterCap(address _candidate, address _voter) public view returns(uint256) {\n        return validatorsState[_candidate].voters[_voter];\n    }\n\n    function getVoters(address _candidate) public view returns(address[]) {\n        return voters[_candidate];\n    }\n\n    function isCandidate(address _candidate) public view returns(bool) {\n        return validatorsState[_candidate].isCandidate;\n    }\n\n    function getWithdrawBlockNumbers() public view returns(uint256[]) {\n        return withdrawsState[msg.sender].blockNumbers;\n    }\n\n    function unvote(address _candidate, uint256 _cap) public onlyValidVote(_candidate, _cap) {\n        validatorsState[_candidate].cap = validatorsState[_candidate].cap.sub(_cap);\n        validatorsState[_candidate].voters[msg.sender] = validatorsState[_candidate].voters[msg.sender].sub(_cap);\n\n        // refund after delay X blocks\n        uint256 withdrawBlockNumber = voterWithdrawDelay.add(block.number);\n        withdrawsState[msg.sender].caps[withdrawBlockNumber] = withdrawsState[msg.sender].caps[withdrawBlockNumber].add(_cap);\n        withdrawsState[msg.sender].blockNumbers.push(withdrawBlockNumber);\n\n        emit Unvote(msg.sender, _candidate, _cap);\n    }\n\n    function setNodeId(address _candidate, string _nodeId) public onlyOwner(_candidate) {\n        validatorsState[_candidate].nodeId = _nodeId;\n        emit SetNodeId(msg.sender, _candidate, _nodeId);\n    }\n\n    function resign(address _candidate) public onlyOwner(_candidate) onlyCandidate(_candidate) {\n        validatorsState[_candidate].isCandidate = false;\n        candidateCount = candidateCount - 1;\n        for (uint256 i = 0; i < candidates.length; i++) {\n            if (candidates[i] == _candidate) {\n                delete candidates[i];\n                break;\n            }\n        }\n        uint256 cap = validatorsState[_candidate].voters[msg.sender];\n        validatorsState[_candidate].cap = validatorsState[_candidate].cap.sub(cap);\n        validatorsState[_candidate].voters[msg.sender] = 0;\n        // refunding after retiring X blocks\n        uint256 withdrawBlockNumber = candidateWithdrawDelay.add(block.number);\n        withdrawsState[msg.sender].caps[withdrawBlockNumber] = withdrawsState[msg.sender].caps[withdrawBlockNumber].add(cap);\n        withdrawsState[msg.sender].blockNumbers.push(withdrawBlockNumber);\n        emit Resign(msg.sender, _candidate);\n    }\n\n    function withdraw(uint256 _blockNumber, uint _index) public onlyValidWithdraw(_blockNumber, _index) {\n        uint256 cap = withdrawsState[msg.sender].caps[_blockNumber];\n        delete withdrawsState[msg.sender].caps[_blockNumber];\n        delete withdrawsState[msg.sender].blockNumbers[_index];\n        msg.sender.transfer(cap);\n        emit Withdraw(msg.sender, _blockNumber, cap);\n    }\n}\n",
  "sourcePath": "/home/vagrant/projects/tomomaster/contracts/TomoValidator.sol",
  "compiler": {
    "name": "solc",
    "version": "0.4.24+commit.e67f0147.Emscripten.clang"
  },
  "schemaVersion": "2.0.1",
  "updatedAt": "2018-08-06T02:55:04.980Z"
}