{
  "contractName": "TomoValidator",
  "abi": [
    {
      "constant": true,
      "inputs": [
        {
          "name": "",
          "type": "uint256"
        }
      ],
      "name": "candidates",
      "outputs": [
        {
          "name": "",
          "type": "address"
        }
      ],
      "payable": false,
      "stateMutability": "view",
      "type": "function"
    },
    {
      "constant": true,
      "inputs": [],
      "name": "maxCandidateNumber",
      "outputs": [
        {
          "name": "",
          "type": "uint256"
        }
      ],
      "payable": false,
      "stateMutability": "view",
      "type": "function"
    },
    {
      "constant": true,
      "inputs": [],
      "name": "maxValidatorNumber",
      "outputs": [
        {
          "name": "",
          "type": "uint256"
        }
      ],
      "payable": false,
      "stateMutability": "view",
      "type": "function"
    },
    {
      "constant": true,
      "inputs": [],
      "name": "minCandidateCap",
      "outputs": [
        {
          "name": "",
          "type": "uint256"
        }
      ],
      "payable": false,
      "stateMutability": "view",
      "type": "function"
    },
    {
      "inputs": [
        {
          "name": "_candidates",
          "type": "address[]"
        },
        {
          "name": "_caps",
          "type": "uint256[]"
        }
      ],
      "payable": false,
      "stateMutability": "nonpayable",
      "type": "constructor"
    },
    {
      "anonymous": false,
      "inputs": [
        {
          "indexed": false,
          "name": "_voter",
          "type": "address"
        },
        {
          "indexed": false,
          "name": "_candidate",
          "type": "address"
        },
        {
          "indexed": false,
          "name": "_cap",
          "type": "uint256"
        }
      ],
      "name": "Vote",
      "type": "event"
    },
    {
      "anonymous": false,
      "inputs": [
        {
          "indexed": false,
          "name": "_voter",
          "type": "address"
        },
        {
          "indexed": false,
          "name": "_candidate",
          "type": "address"
        },
        {
          "indexed": false,
          "name": "_cap",
          "type": "uint256"
        }
      ],
      "name": "Unvote",
      "type": "event"
    },
    {
      "anonymous": false,
      "inputs": [
        {
          "indexed": false,
          "name": "_candidate",
          "type": "address"
        },
        {
          "indexed": false,
          "name": "_cap",
          "type": "uint256"
        }
      ],
      "name": "Propose",
      "type": "event"
    },
    {
      "anonymous": false,
      "inputs": [
        {
          "indexed": false,
          "name": "_candidate",
          "type": "address"
        },
        {
          "indexed": false,
          "name": "_cap",
          "type": "uint256"
        }
      ],
      "name": "Retire",
      "type": "event"
    },
    {
      "constant": false,
      "inputs": [],
      "name": "propose",
      "outputs": [],
      "payable": true,
      "stateMutability": "payable",
      "type": "function"
    },
    {
      "constant": false,
      "inputs": [
        {
          "name": "_candidate",
          "type": "address"
        }
      ],
      "name": "vote",
      "outputs": [],
      "payable": true,
      "stateMutability": "payable",
      "type": "function"
    },
    {
      "constant": true,
      "inputs": [],
      "name": "getCandidates",
      "outputs": [
        {
          "name": "",
          "type": "address[]"
        }
      ],
      "payable": false,
      "stateMutability": "view",
      "type": "function"
    },
    {
      "constant": true,
      "inputs": [
        {
          "name": "_candidate",
          "type": "address"
        }
      ],
      "name": "getCandidateCap",
      "outputs": [
        {
          "name": "",
          "type": "uint256"
        }
      ],
      "payable": false,
      "stateMutability": "view",
      "type": "function"
    },
    {
      "constant": true,
      "inputs": [
        {
          "name": "_candidate",
          "type": "address"
        },
        {
          "name": "_voter",
          "type": "address"
        }
      ],
      "name": "getVoterCap",
      "outputs": [
        {
          "name": "",
          "type": "uint256"
        }
      ],
      "payable": false,
      "stateMutability": "view",
      "type": "function"
    },
    {
      "constant": true,
      "inputs": [
        {
          "name": "_candidate",
          "type": "address"
        }
      ],
      "name": "getVoters",
      "outputs": [
        {
          "name": "",
          "type": "address[]"
        }
      ],
      "payable": false,
      "stateMutability": "view",
      "type": "function"
    },
    {
      "constant": true,
      "inputs": [
        {
          "name": "_candidate",
          "type": "address"
        }
      ],
      "name": "isCandidate",
      "outputs": [
        {
          "name": "",
          "type": "bool"
        }
      ],
      "payable": false,
      "stateMutability": "view",
      "type": "function"
    },
    {
      "constant": false,
      "inputs": [
        {
          "name": "_candidate",
          "type": "address"
        },
        {
          "name": "_cap",
          "type": "uint256"
        }
      ],
      "name": "unvote",
      "outputs": [],
      "payable": false,
      "stateMutability": "nonpayable",
      "type": "function"
    },
    {
      "constant": false,
      "inputs": [],
      "name": "retire",
      "outputs": [],
      "payable": false,
      "stateMutability": "nonpayable",
      "type": "function"
    }
  ],
  "bytecode": "0x6060604052600060035534156200001557600080fd5b60405162001747380380620017478339810160405280805182019190602001805182019190505060008260029080519060200190620000569291906200013c565b50600090505b82518110156200013357604080519081016040528060011515815260200183838151811015156200008957fe5b906020019060200201518152506000808584815181101515620000a857fe5b9060200190602002015173ffffffffffffffffffffffffffffffffffffffff1673ffffffffffffffffffffffffffffffffffffffff16815260200190815260200160002060008201518160000160006101000a81548160ff0219169083151502179055506020820151816001015590505060016003540160038190555080806001019150506200005c565b50505062000211565b828054828255906000526020600020908101928215620001b8579160200282015b82811115620001b75782518260006101000a81548173ffffffffffffffffffffffffffffffffffffffff021916908373ffffffffffffffffffffffffffffffffffffffff160217905550916020019190600101906200015d565b5b509050620001c79190620001cb565b5090565b6200020e91905b808211156200020a57600081816101000a81549073ffffffffffffffffffffffffffffffffffffffff021916905550600101620001d2565b5090565b90565b61152680620002216000396000f3006060604052600436106100c5576000357c0100000000000000000000000000000000000000000000000000000000900463ffffffff16806302aa9be2146100ca57806306a49fce1461010c5780632d15cc0414610176578063302b6872146102045780633477ee2e1461027057806358e7525f146102d35780636dd7d8ea146103205780638198a8dc1461034e578063a4874d7714610377578063c198f8ba1461038c578063d09f1ab414610396578063d51b9e93146103bf578063d55b7dff14610410575b600080fd5b34156100d557600080fd5b61010a600480803573ffffffffffffffffffffffffffffffffffffffff16906020019091908035906020019091905050610439565b005b341561011757600080fd5b61011f610759565b6040518080602001828103825283818151815260200191508051906020019060200280838360005b83811015610162578082015181840152602081019050610147565b505050509050019250505060405180910390f35b341561018157600080fd5b6101ad600480803573ffffffffffffffffffffffffffffffffffffffff169060200190919050506107ed565b6040518080602001828103825283818151815260200191508051906020019060200280838360005b838110156101f05780820151818401526020810190506101d5565b505050509050019250505060405180910390f35b341561020f57600080fd5b61025a600480803573ffffffffffffffffffffffffffffffffffffffff1690602001909190803573ffffffffffffffffffffffffffffffffffffffff169060200190919050506108c0565b6040518082815260200191505060405180910390f35b341561027b57600080fd5b6102916004808035906020019091905050610949565b604051808273ffffffffffffffffffffffffffffffffffffffff1673ffffffffffffffffffffffffffffffffffffffff16815260200191505060405180910390f35b34156102de57600080fd5b61030a600480803573ffffffffffffffffffffffffffffffffffffffff16906020019091905050610988565b6040518082815260200191505060405180910390f35b61034c600480803573ffffffffffffffffffffffffffffffffffffffff169060200190919050506109d3565b005b341561035957600080fd5b610361610da5565b6040518082815260200191505060405180910390f35b341561038257600080fd5b61038a610dab565b005b61039461118a565b005b34156103a157600080fd5b6103a96113f3565b6040518082815260200191505060405180910390f35b34156103ca57600080fd5b6103f6600480803573ffffffffffffffffffffffffffffffffffffffff169060200190919050506113f8565b604051808215151515815260200191505060405180910390f35b341561041b57600080fd5b610423611450565b6040518082815260200191505060405180910390f35b8181806000808473ffffffffffffffffffffffffffffffffffffffff1673ffffffffffffffffffffffffffffffffffffffff16815260200190815260200160002060020160003373ffffffffffffffffffffffffffffffffffffffff1673ffffffffffffffffffffffffffffffffffffffff16815260200190815260200160002054101515156104c857600080fd5b61051c836000808773ffffffffffffffffffffffffffffffffffffffff1673ffffffffffffffffffffffffffffffffffffffff1681526020019081526020016000206001015461145e90919063ffffffff16565b6000808673ffffffffffffffffffffffffffffffffffffffff1673ffffffffffffffffffffffffffffffffffffffff168152602001908152602001600020600101819055506105f2836000808773ffffffffffffffffffffffffffffffffffffffff1673ffffffffffffffffffffffffffffffffffffffff16815260200190815260200160002060020160003373ffffffffffffffffffffffffffffffffffffffff1673ffffffffffffffffffffffffffffffffffffffff1681526020019081526020016000205461145e90919063ffffffff16565b6000808673ffffffffffffffffffffffffffffffffffffffff1673ffffffffffffffffffffffffffffffffffffffff16815260200190815260200160002060020160003373ffffffffffffffffffffffffffffffffffffffff1673ffffffffffffffffffffffffffffffffffffffff168152602001908152602001600020819055503373ffffffffffffffffffffffffffffffffffffffff166108fc849081150290604051600060405180830381858888f1935050505015156106b457600080fd5b7faa0e554f781c3c3b2be110a0557f260f11af9a8aa2c64bc1e7a31dbb21e32fa2338585604051808473ffffffffffffffffffffffffffffffffffffffff1673ffffffffffffffffffffffffffffffffffffffff1681526020018373ffffffffffffffffffffffffffffffffffffffff1673ffffffffffffffffffffffffffffffffffffffff168152602001828152602001935050505060405180910390a150505050565b610761611495565b60028054806020026020016040519081016040528092919081815260200182805480156107e357602002820191906000526020600020905b8160009054906101000a900473ffffffffffffffffffffffffffffffffffffffff1673ffffffffffffffffffffffffffffffffffffffff1681526020019060010190808311610799575b5050505050905090565b6107f5611495565b600160008373ffffffffffffffffffffffffffffffffffffffff1673ffffffffffffffffffffffffffffffffffffffff1681526020019081526020016000208054806020026020016040519081016040528092919081815260200182805480156108b457602002820191906000526020600020905b8160009054906101000a900473ffffffffffffffffffffffffffffffffffffffff1673ffffffffffffffffffffffffffffffffffffffff168152602001906001019080831161086a575b50505050509050919050565b60008060008473ffffffffffffffffffffffffffffffffffffffff1673ffffffffffffffffffffffffffffffffffffffff16815260200190815260200160002060020160008373ffffffffffffffffffffffffffffffffffffffff1673ffffffffffffffffffffffffffffffffffffffff16815260200190815260200160002054905092915050565b60028181548110151561095857fe5b90600052602060002090016000915054906101000a900473ffffffffffffffffffffffffffffffffffffffff1681565b60008060008373ffffffffffffffffffffffffffffffffffffffff1673ffffffffffffffffffffffffffffffffffffffff168152602001908152602001600020600101549050919050565b806000808273ffffffffffffffffffffffffffffffffffffffff1673ffffffffffffffffffffffffffffffffffffffff16815260200190815260200160002060000160009054906101000a900460ff161515610a2e57600080fd5b610a82346000808573ffffffffffffffffffffffffffffffffffffffff1673ffffffffffffffffffffffffffffffffffffffff1681526020019081526020016000206001015461147790919063ffffffff16565b6000808473ffffffffffffffffffffffffffffffffffffffff1673ffffffffffffffffffffffffffffffffffffffff1681526020019081526020016000206001018190555060008060008473ffffffffffffffffffffffffffffffffffffffff1673ffffffffffffffffffffffffffffffffffffffff16815260200190815260200160002060020160003373ffffffffffffffffffffffffffffffffffffffff1673ffffffffffffffffffffffffffffffffffffffff168152602001908152602001600020541415610bef57600160008373ffffffffffffffffffffffffffffffffffffffff1673ffffffffffffffffffffffffffffffffffffffff1681526020019081526020016000208054806001018281610b9f91906114a9565b9160005260206000209001600033909190916101000a81548173ffffffffffffffffffffffffffffffffffffffff021916908373ffffffffffffffffffffffffffffffffffffffff160217905550505b610c80346000808573ffffffffffffffffffffffffffffffffffffffff1673ffffffffffffffffffffffffffffffffffffffff16815260200190815260200160002060020160003373ffffffffffffffffffffffffffffffffffffffff1673ffffffffffffffffffffffffffffffffffffffff1681526020019081526020016000205461147790919063ffffffff16565b6000808473ffffffffffffffffffffffffffffffffffffffff1673ffffffffffffffffffffffffffffffffffffffff16815260200190815260200160002060020160003373ffffffffffffffffffffffffffffffffffffffff1673ffffffffffffffffffffffffffffffffffffffff168152602001908152602001600020819055507f66a9138482c99e9baf08860110ef332cc0c23b4a199a53593d8db0fc8f96fbfc338334604051808473ffffffffffffffffffffffffffffffffffffffff1673ffffffffffffffffffffffffffffffffffffffff1681526020018373ffffffffffffffffffffffffffffffffffffffff1673ffffffffffffffffffffffffffffffffffffffff168152602001828152602001935050505060405180910390a15050565b6101f481565b6000806000803373ffffffffffffffffffffffffffffffffffffffff1673ffffffffffffffffffffffffffffffffffffffff16815260200190815260200160002060000160009054906101000a900460ff161515610e0857600080fd5b6000803373ffffffffffffffffffffffffffffffffffffffff1673ffffffffffffffffffffffffffffffffffffffff16815260200190815260200160002060020160003373ffffffffffffffffffffffffffffffffffffffff1673ffffffffffffffffffffffffffffffffffffffff168152602001908152602001600020549150610edd826000803373ffffffffffffffffffffffffffffffffffffffff1673ffffffffffffffffffffffffffffffffffffffff1681526020019081526020016000206001015461145e90919063ffffffff16565b6000803373ffffffffffffffffffffffffffffffffffffffff1673ffffffffffffffffffffffffffffffffffffffff1681526020019081526020016000206001018190555060008060003373ffffffffffffffffffffffffffffffffffffffff1673ffffffffffffffffffffffffffffffffffffffff16815260200190815260200160002060020160003373ffffffffffffffffffffffffffffffffffffffff1673ffffffffffffffffffffffffffffffffffffffff1681526020019081526020016000208190555060008060003373ffffffffffffffffffffffffffffffffffffffff1673ffffffffffffffffffffffffffffffffffffffff16815260200190815260200160002060000160006101000a81548160ff021916908315150217905550600160035403600381905550600090505b6002805490508110156110db573373ffffffffffffffffffffffffffffffffffffffff1660028281548110151561104457fe5b906000526020600020900160009054906101000a900473ffffffffffffffffffffffffffffffffffffffff1673ffffffffffffffffffffffffffffffffffffffff1614156110ce5760028181548110151561109b57fe5b906000526020600020900160006101000a81549073ffffffffffffffffffffffffffffffffffffffff02191690556110db565b8080600101915050611011565b3373ffffffffffffffffffffffffffffffffffffffff166108fc839081150290604051600060405180830381858888f19350505050151561111b57600080fd5b7f82b89ed824b293574a2cca050e6e27837b60436d911352f8dca203a9cd35241c3383604051808373ffffffffffffffffffffffffffffffffffffffff1673ffffffffffffffffffffffffffffffffffffffff1681526020018281526020019250505060405180910390a15050565b69021e19e0c9bab240000034101515156111a357600080fd5b6101f4600354111515156111b657600080fd5b6000803373ffffffffffffffffffffffffffffffffffffffff1673ffffffffffffffffffffffffffffffffffffffff16815260200190815260200160002060000160009054906101000a900460ff1615151561121157600080fd5b6002805480600101828161122591906114a9565b9160005260206000209001600033909190916101000a81548173ffffffffffffffffffffffffffffffffffffffff021916908373ffffffffffffffffffffffffffffffffffffffff160217905550506040805190810160405280600115158152602001348152506000803373ffffffffffffffffffffffffffffffffffffffff1673ffffffffffffffffffffffffffffffffffffffff16815260200190815260200160002060008201518160000160006101000a81548160ff02191690831515021790555060208201518160010155905050346000803373ffffffffffffffffffffffffffffffffffffffff1673ffffffffffffffffffffffffffffffffffffffff16815260200190815260200160002060020160003373ffffffffffffffffffffffffffffffffffffffff1673ffffffffffffffffffffffffffffffffffffffff168152602001908152602001600020819055506001600354016003819055507f42681fc159c671d489c99c06f4693d03a705a21df2fbb2b84eedda79e0db4cff3334604051808373ffffffffffffffffffffffffffffffffffffffff1673ffffffffffffffffffffffffffffffffffffffff1681526020018281526020019250505060405180910390a1565b606381565b60008060008373ffffffffffffffffffffffffffffffffffffffff1673ffffffffffffffffffffffffffffffffffffffff16815260200190815260200160002060000160009054906101000a900460ff169050919050565b69021e19e0c9bab240000081565b600082821115151561146c57fe5b818303905092915050565b600080828401905083811015151561148b57fe5b8091505092915050565b602060405190810160405280600081525090565b8154818355818115116114d0578183600052602060002091820191016114cf91906114d5565b5b505050565b6114f791905b808211156114f35760008160009055506001016114db565b5090565b905600a165627a7a723058206e68e14664074b45fb8cf30748bf8d7e2b8782733a2b94287496b71dc62c45760029",
  "source": "pragma solidity ^0.4.21;\n\nimport \"./interfaces/IValidator.sol\";\nimport \"./libs/SafeMath.sol\";\n\ncontract TomoValidator is IValidator {\n    using SafeMath for uint256;\n\n    event Vote(address _voter, address _candidate, uint256 _cap);\n    event Unvote(address _voter, address _candidate, uint256 _cap);\n    event Propose(address _candidate, uint256 _cap);\n    event Retire(address _candidate, uint256 _cap);\n\n    struct ValidatorState {\n        bool isCandidate;\n        uint256 cap;\n        mapping(address => uint256) voters;\n    }\n\n    mapping(address => ValidatorState) validatorsState;\n    mapping(address => address[]) voters;\n    address[] public candidates;\n    uint256 candidateCount = 0;\n    uint256 public constant minCandidateCap = 10000 ether;\n    uint256 public constant maxCandidateNumber = 500;\n    uint256 public constant maxValidatorNumber = 99;\n\n    modifier onlyValidCandidateCap {\n        // anyone can deposit 10000 TOMO to become a candidate\n        require(msg.value >= minCandidateCap);\n        require(candidateCount <= maxCandidateNumber);\n        _;\n    }\n\n    modifier onlyCandidate {\n        require(validatorsState[msg.sender].isCandidate);\n        _;\n    }\n\n    modifier onlyValidCandidate (address _candidate) {\n        require(validatorsState[_candidate].isCandidate);\n        _;\n    }\n\n    modifier onlyNotCandidate {\n        require(!validatorsState[msg.sender].isCandidate);\n        _;\n    }\n\n    modifier onlyValidVote (address _candidate, uint256 _cap) {\n        require(validatorsState[_candidate].voters[msg.sender] >= _cap);\n        _;\n    }\n\n    function TomoValidator(address[] _candidates, uint256[] _caps) public {\n        candidates = _candidates;\n        \n        for (uint256 i = 0; i < _candidates.length; i++) {\n            validatorsState[_candidates[i]] = ValidatorState({\n                isCandidate: true,\n                cap: _caps[i]\n            });\n            candidateCount = candidateCount + 1;\n        }\n\n    }\n\n    function propose() external payable onlyValidCandidateCap onlyNotCandidate {\n        candidates.push(msg.sender);\n        validatorsState[msg.sender] = ValidatorState({\n            isCandidate: true,\n            cap: msg.value\n        });\n        validatorsState[msg.sender].voters[msg.sender] = msg.value;\n        candidateCount = candidateCount + 1;\n        emit Propose(msg.sender, msg.value);\n    }\n\n    function vote(address _candidate) external payable onlyValidCandidate(_candidate) {\n        validatorsState[_candidate].cap = validatorsState[_candidate].cap.add(msg.value);\n        if (validatorsState[_candidate].voters[msg.sender] == 0) {\n            voters[_candidate].push(msg.sender);\n        }\n        validatorsState[_candidate].voters[msg.sender] = validatorsState[_candidate].voters[msg.sender].add(msg.value);\n        emit Vote(msg.sender, _candidate, msg.value);\n    }\n\n    function getCandidates() public view returns(address[]) {\n        return candidates;\n    }\n\n    function getCandidateCap(address _candidate) public view returns(uint256) {\n        return validatorsState[_candidate].cap;\n    }\n\n    function getVoterCap(address _candidate, address _voter) public view returns(uint256) {\n        return validatorsState[_candidate].voters[_voter];\n    }\n\n    function getVoters(address _candidate) public view returns(address[]) {\n        return voters[_candidate];\n    }\n\n    function isCandidate(address _candidate) public view returns(bool) {\n        return validatorsState[_candidate].isCandidate;\n    }\n\n    function unvote(address _candidate, uint256 _cap) public onlyValidVote(_candidate, _cap) {\n        validatorsState[_candidate].cap = validatorsState[_candidate].cap.sub(_cap);\n        validatorsState[_candidate].voters[msg.sender] = validatorsState[_candidate].voters[msg.sender].sub(_cap);\n        // refunding to user after unvoting\n        msg.sender.transfer(_cap);\n        emit Unvote(msg.sender, _candidate, _cap);\n    }\n\n    function retire() public onlyCandidate {\n        uint256 cap = validatorsState[msg.sender].voters[msg.sender];\n        validatorsState[msg.sender].cap = validatorsState[msg.sender].cap.sub(cap);\n        validatorsState[msg.sender].voters[msg.sender] = 0;\n        validatorsState[msg.sender].isCandidate = false;\n        candidateCount = candidateCount - 1;\n        for (uint256 i = 0; i < candidates.length; i++) {\n            if (candidates[i] == msg.sender) {\n                delete candidates[i];\n                break;\n            }\n        }\n        // refunding to user after retiring\n        msg.sender.transfer(cap);\n        emit Retire(msg.sender, cap);\n    }\n\n}\n",
  "sourcePath": "/home/vagrant/projects/tomochain-governance/contracts/TomoValidator.sol",
  "compiler": {
    "name": "solc",
    "version": "0.4.21+commit.dfe3193c.Emscripten.clang"
  },
  "schemaVersion": "2.0.0",
  "updatedAt": "2018-05-10T08:56:33.772Z"
}